:020000041004E6
:1000000000000120F52D04101D2C04101F2C0410DD
:1000100000000000000000000000000000000000E0
:10002000000000000000000000000000212C04106F
:100030000000000000000000232C0410252C0410F8
:10004000592E0410592E0410592E0410592E041044
:10005000592E0410592E0410592E0410592E041034
:10006000592E0410592E0410592E0410592E041024
:10007000592E0410592E041000000000592E0410AF
:100080002D2C0410592E0410612C041000000000C7
:10009000592C04100000000000000000492C04103E
:1000A000512C0410692C0410000000000000000016
:1000B0000000000000000000000000000000000040
:1000C00010B5904216D98AB2030C090C0C4659435C
:1000D00080B25343444350431B191A041B0C10189D
:1000E000594180225203002312184B41520DD8026D
:1000F000104310BD4843802252031218520D10467F
:1001000010BDC046002243088B4274D303098B42C2
:100110005FD3030A8B4244D3030B8B4228D3030CD7
:100120008B420DD3FF22090212BA030C8B4202D379
:100130001212090265D0030B8B4219D300E0090AA1
:10014000C30B8B4201D3CB03C01A5241830B8B42AA
:1001500001D38B03C01A5241430B8B4201D34B0393
:10016000C01A5241030B8B4201D30B03C01A5241F8
:10017000C30A8B4201D3CB02C01A5241830A8B427D
:1001800001D38B02C01A5241430A8B4201D34B0266
:10019000C01A5241030A8B4201D30B02C01A5241CA
:1001A000CDD2C3098B4201D3CB01C01A524183097E
:1001B0008B4201D38B01C01A524143098B4201D3B8
:1001C0004B01C01A524103098B4201D30B01C01AE3
:1001D0005241C3088B4201D3CB00C01A524183085D
:1001E0008B4201D38B00C01A524143088B4201D38A
:1001F0004B00C01A5241411A00D2014652411046EA
:100200007047FFE701B5002000F006F802BDC046C8
:100210000029F7D076E770477047C046D0400B0002
:10022000D1409C46203AD340184352426346934003
:10023000184370479140030090409C46203A9340F9
:10024000194352426346D34019437047F0B5CE4636
:100250009946030C9C46130447461B0C1D000E00D8
:1002600061460404240C80B50700100C4B43654321
:10027000414360432C0CC01824188C46A34203D978
:1002800080235B029846C444494679435643230C75
:100290002D042D0C8919634424046019C918C0BCAD
:1002A000B946B046F0BDC04670B500220C4B040004
:1002B0000D0001F073FA002804D12000290001F09C
:1002C000D9F970BD064B00222000290000F036FE4F
:1002D00001F0D0F980231B069C466044F1E7C0463C
:1002E0000000E041F0B557464E464546DE46E0B5D3
:1002F00083B0009001910C034F00CE0F610A009C67
:100300001D03640F0C43009900920193C80059002B
:100310004B0D9946009A019B6D0AD90F530F2B4341
:100320009A46009B7F0DDA0094464A46B046BA1AB8
:100330008E4200D1B0E0002A00DC78E04946002976
:1003400000D1E9E0C9498F4200D195E10125382A61
:1003500016DC8021534609040B439A461F2A00DD10
:10036000E7E1202155468B1A61469D40D1400D435F
:10037000614699404B1E99415346D3400D43E41AC0
:10038000451BA84280414042241A230200D40FE1B9
:100390006402640A002C00D139E1200001F008FA5F
:1003A0000300083B20212800CA1AD0409C400200CC
:1003B0009D4022439F4200DD73E1D81B0130091AA2
:1003C0002C008D40C4406B1E9D411300C2408B40E9
:1003D0002543002714001D436B0709D00F232B4032
:1003E000042B05D02B1DAB42AD416D4264191D009D
:1003F000230200D42DE19D4A0137974200D1D3E07A
:1004000046469B49ED0821404A072A437C054D0298
:100410002D0B640D24052C43F607344310002100F6
:1004200003B0F0BCBB46B246A946A046F0BD002AC8
:1004300000D184E04A46D21B002F00D06DE1250098
:10044000054300D127E1561E012A00D13BE2874D2A
:10045000AA4200D16AE20125382E12DC32001F2A9E
:1004600000DDF8E120262500B61A07005346B0400B
:10047000D440B540D740461EB0411B1B9A463D4371
:1004800005436246551BAC459241534652420E000D
:100490004F4688469C1A78E7002A00DC8EE04946E1
:1004A000002975D161465346194300D1F6E0511E2B
:1004B000012A00D191E16D4DAA4200D1DCE0012575
:1004C000382914DC0A001F2A00DDA2E1202153464E
:1004D000891A8B401D006346D3401D4363468B4001
:1004E00019004B1E99415346D3400D43E4182D1873
:1004F0008542804140422418230259D55B4B013785
:100500009F4251D001215A4B6A081C4029400A439E
:10051000E507154364085FE761465346194300D178
:10052000BCE0511E012A00D164E1504DAA4200D125
:100530006AE10125382900DD22E70A000EE74D4A6D
:100540007D1C154200D0D0E025006246534605438D
:100550001A43002F00D037E1002D00D1A8E1002A76
:1005600000D16AE16346C51A5346E21AA8429B418C
:100570005B42D31A1A0200D403E263461D1AAC454B
:100580009241534652421C1B0E008846A41A23E790
:1005900036498F4270D00125382AA8DC8021534685
:1005A00009040B439A468EE73C000025002231E700
:1005B00007232B40002B00D010E793E0002A74D0D3
:1005C0004A46D21B002F00D1C7E02849894500D1F7
:1005D00085E10125382A12DC802109040C431F2AF9
:1005E00000DDABE120212500891A070088408D40FD
:1005F000D740411E8841D4403D430543A244654451
:10060000654592415242524414004F4674E7280017
:1006100001F0CEF8030018331F2B00DCC2E62A00DD
:10062000083882409F4200DDA9E0DB1B581C1F28D0
:1006300000DCACE115001F3BDD40202805D0402345
:100640001B1A9A40531E9A411543072300272B403B
:10065000B0E7ED08054B62072A43E4089F420FD03C
:100660002403250B7C05640DD4E6C046FF0700007B
:10067000FFFF7FFFFE070000C00862070243E40897
:100680001300234300D186E180252D0325432D034C
:10069000C34C2D0BBEE6604654460E001700C5083D
:1006A000D8E7C04CFF1A144096E6BF4A791C1142A5
:1006B0006BD122000243002F00D0DBE0002A00D1E2
:1006C0002DE1624653461A4300D1B6E06346C51891
:1006D00085428041544440422418230202D50F0031
:1006E000B04B1C403A002800D8E76246851AA84261
:1006F0009241534652429146E31A1A004B46D21A8F
:10070000130091461A0254D44A464C462A4300D05C
:1007100040E60026002400257CE6A14DA94500D135
:1007200090E00125382A00DDABE680252D042C431E
:1007300095E6110055462039CD40A946202A06D01D
:10074000402153468A1A934062461A4394466546AE
:100750006B1E9D414B461D4312E62100014300D113
:10076000C4E0511E012A00D1FBE08D4DAA4200D108
:10077000B5E00125382900DD41E70A002FE7894C63
:10078000FF1A14406207E4086AE7854A914200D1E3
:10079000E3E06346C2188242804123004042534452
:1007A0001B18DD075C080723520815430F002B4078
:1007B00000E763461D1AAC459241534652421C1B4A
:1007C0000E008846A41AE5E5002D00D091E0002A2D
:1007D00038D180240026240356E76346C518854295
:1007E00080415444404224180127230200D4DFE60C
:1007F000022787E66346C51AA84280415346404215
:10080000E41A0127241AC0E56207C0080243E4087D
:1008100036E7110053462039CB409946202A06D0AE
:10082000402153468A1A934062461A4394466546CD
:100830006B1E9D414B461D4359E66207C0080243AB
:10084000E4080DE753465A076346D80853460E009E
:100850000243DC0814E715002600203DEE40202A64
:1008600003D04025AA1A94402043421E904105001F
:10087000354306E6002A7CD062465346C0081A4338
:1008800000D1FAE6620710438022E4081203144202
:1008900008D0D908114205D16346D80853460C0048
:1008A0005B071843420FC000C00852070243E7E647
:1008B000002A00D12DE76346D80853465A070E0098
:1008C0000243DC08CCE663461D1AAC459241534610
:1008D00052421C1B0E008846A41A013755E5634698
:1008E000D90853465A070A43DC08C9E6604654460D
:1008F000D4E6C008002A00D1BFE662071043802278
:10090000E40812031442CDD0DD081542CAD1634673
:10091000D80853465B070E002C001843C2E7634615
:10092000D90853465A070A43DC0899E66346D808B3
:1009300053465A070E000243DC08A1E611002700C7
:100940002039CF40202A03D040218A1A94402043E6
:10095000421E904105003D4351E60C000025002257
:1009600058E5604460459241544452420500A41841
:100970003AE753465A076346D90853460A43DC0808
:100980007EE61A001C002A4300D0ABE6C1E6202117
:100990000025091A19E500220025014C3AE5C04658
:1009A000FF070000FFFF7FFFFE070000F0B557467E
:1009B000DE464E464546E0B51F000B031B0B1600F6
:1009C0009A46CA0F4B000400934687B05B0D00D1D6
:1009D000D5E0BB4A934200D1F8E05146420FC9002E
:1009E0000A43802109041143C2009146B54A8A4650
:1009F0009D180023984602933C037B00FA0F3000B9
:100A0000240B5B0D009200D196E0AD4A934231D0A9
:100A1000720FE4002243802424041443A94AF00006
:100A2000944663445B195A1C0192424600260A2AE6
:100A300042DC5A4600994A4093464246022A32DC3A
:100A4000013A012A00D949E1022E00D1CAE0012E63
:100A50003DD100230024002210005A461B052343E9
:100A6000D2071343190007B0F0BCBB46B246A946F3
:100A7000A046F0BD924B2643EB18002E00D1BBE000
:100A80000322414611435A46884600994A40802134
:100A900009018C4629006144019141460A2900DD83
:100AA00033E293460326424601279740A6213A00A7
:100AB000C9000A400F4231D0029E022E00D135E219
:100AC000032E00D1D2E154464846012EC1D0019AEE
:100AD0007D4B94466344002B00DCC0E0420709D004
:100AE0000F220240042A05D0021D8242804140426A
:100AF00024181000E20106D5744B019A1C40802393
:100B00009446DB006344724A93426BDC6207C00880
:100B100064025B050243240B5B0D9DE79021890075
:100B20000F4263D188223A4200D1D7E0009BA2460F
:100B30009B4681460296BFE72300334300D17FE006
:100B4000002C00D1ADE1200000F032FE02000300D5
:100B50000B3A1D201900821A30000839D0408C4011
:100B60000443300088405B4AEB1A944663445A1CA5
:100B70000192424600260A2A00DC5AE79CE75346C7
:100B80000343994654D05346002B00D177E1504699
:100B900000F00EFE0B235B429C46020084441100D1
:100BA0005046083988401D23804660461B1A2000A5
:100BB000D8400300404603439A4623008B409946A1
:100BC0000023444D9846AD1A029315E7524602435E
:100BD000914626D100221D000223924608329046FB
:100BE000029309E700240022354B35E700238024D7
:100BF0009B462403324B2FE70222414611438022B9
:100C0000120194462A006244884601920A2900DDB6
:100C100052E75A460020009904004A4093460226B3
:100C20000BE70C221D000323814690460293E3E666
:100C300000239A4604339846033B00250293DBE6E3
:100C4000424601331A432B0090465A1C01924246F9
:100C50000024002001260A2A00DCEAE62CE7012213
:100C6000D21A382A00DDF4E61F2A00DC2AE11F210F
:100C70004942CB1A2100D9400B00202A05D0164A40
:100C8000019D94466544AC402043421E9041184368
:100C9000072319000024014003420CD00F23034016
:100CA000042B00D140E1031D8342A441180064429B
:100CB00061076402240BC20800230A43CCE6C04645
:100CC000FF07000001FCFFFFFF030000FFFFFFFE26
:100CD000FE0700000DFCFFFF3E04000049464A46A7
:100CE0000904090C0D00160C020C0004000C45430D
:100CF000AC4605007543A84615000F0075430092E9
:100D000002952A00009D6F4365462D0CA946474475
:100D10004F44B84505D915008022520290464544FB
:100D200002953D0C039565462D043F042D0CAC4601
:100D30003D0065440495250C2404240CAC46250094
:100D40007543A84665460F00694341448946674399
:100D5000390C49446E43884503D98022520290469B
:100D600046440D0CA846350045440595039D3F04B7
:100D7000A8463F0C0904C9198844454603955546C1
:100D80002E04360C2F0C350045437843814638003D
:100D9000A8462D0CAA46009A504372434A44524436
:100DA000914503D980256D02A9464844150CA946F2
:100DB00045462D042D0CA84665467D431204484443
:100DC0009044A9463200654662436E437C43170C4B
:100DD0003619BF19BC4203D980246402A446E144F9
:100DE000029C039EA446059D66448E428941AC4602
:100DF00012043C04120CA21862444942541846449E
:100E0000A4464645A44182466442A046AA42924175
:100E10008C458941E244D044494252420A43A045AC
:100E2000A44182458941644249420C4341463F0CFA
:100E3000D2191219CC0D049970020843411E884141
:100E400041464A44F60D52023043490214430843D6
:100E5000D20135D50122430802401343E00718436D
:100E6000640834E6009BA2469B4681468024534694
:100E700024031C4324034A462E4B240BECE500F0CC
:100E800097FC15239C4684440200634620321C2BA9
:100E900000DC84E6002399462300083883409A4604
:100EA0008EE600F085FC02000300153220331C2A78
:100EB00000DC4EE602003400083A0020944052E67E
:100EC000019304E61C4B21009C460300019DD34086
:100ED0006544A94019430300AB40581E83411943A0
:100EE0000800D4404B0709D00F230B40042B05D03A
:100EF0000B1D8B428041404224181800230200D46D
:100F0000D6E6012300240022A6E50F29AAD18023DA
:100F100052461B031A42A9D01C42A7D11C43009B76
:100F200002009B46034B97E50024C1E60024014BD9
:100F3000220091E5FF0700001E040000F0B54E46B8
:100F40004546DE465746E0B585B0009001910C035A
:100F50004F00CE0F610A009CB046640F0C4300990D
:100F60007F0DC80011001A001B039C4600910192DE
:100F700051004B0D9946019B009DD90F63466A0FA6
:100F80005B0A1343EA0094469346C14A03900293D6
:100F9000914500D1CDE0012569404D467D1BAA4613
:100FA0008E4200D180E0002D00DC35E34946002967
:100FB00000D1DFE0974200D194E152460125382A62
:100FC00019DC8022029B12041343029352461F2A0B
:100FD00000DDE3E1534620226146029DD21A95408E
:100FE000D9400D43614691400A00511E8A41154384
:100FF000029ADA40A41A451BA84280414042241AB2
:10100000230200D43DE16402640A002C00D147E1D0
:10101000200000F0CDFB0300083B20212800CA1A65
:10102000D0409C4002009D4022439F4200DD77E17A
:10103000D81B0130091A2C008D40C4406B1E9D4105
:101040001300C2408B402543002714001D436B074B
:1010500009D00F232B40042B05D02B1DAB42AD41F3
:101060006D4264191D00230200D440E1884A013713
:10107000974200D101E1012643468649ED0821400F
:101080004A072A437C054D022D0B640D1E402405A2
:101090002C43F60734431000210005B0F0BCBB46DA
:1010A000B246A946A046F0BD002D00DCD0E249467C
:1010B000002900D0D4E06146029B194300D12BE106
:1010C000691E012D00D1D9E1954200D10AE1012527
:1010D000382917DC8A4653461F2B00DDE7E1202222
:1010E000D21A029B614693401D005346D940634685
:1010F00093401A000D43511E8A4153461543029AEC
:10110000DA40A4182D188542804140422418230259
:1011100000D4B6E05E4B01379F4200D1ADE0012123
:101120005C4B6A081C4029400A43E50715436408E4
:101130008DE7594A029B92466246BA441A432CD024
:101140008E422ED05246002A60D0002F00D1DBE024
:1011500063460E00029CD80862070243E4081300AD
:10116000234300D154E280252D0325432D03484C11
:101170002D0B8CE76146029B194300D1CCE029007E
:101180000139012D00D188E1954200D1AAE0012565
:10119000382900DD2FE78A4618E7012251408E42A8
:1011A000D0D15346002B00D1BEE0002F00D038E153
:1011B000CA462200024300D1E2E15346591E012BE8
:1011C00000D10DE2324A924500D1D2E101273829FF
:1011D00013DC1F2900DDEEE12022029B521A2500BC
:1011E00007009A46CC4090409540CF40A244421E12
:1011F000904153462F43074302933D0065446545A4
:101200009241029B52424F46D41880E7234A7D1CEC
:10121000154200D0AAE062462500029B05431A430E
:10122000002F00D0F5E0002D00D16BE1002A00D1A5
:1012300052E16346C51A029BE21AA8429B415B42F7
:10124000D31A1A0200D4D5E163461D1AAC45924167
:101250000126029B52421C1B8846A41A0E40F6E649
:1012600097423FD052460125382A00DD4AE78022C6
:10127000029B1204134302932DE73C000025002239
:1012800005E707232B40002B00D0E2E66BE0C046C9
:10129000FF070000FFFF7FFF01F8FFFFFE070000D0
:1012A000280000F085FA030018331F2B00DCB4E699
:1012B0002A00083882409F4200DDB9E0DB1B581C41
:1012C0001F2800DCA0E115001F3BDD40202805D0D1
:1012D00040231B1A9A40531E9A41154307230027A7
:1012E0002B40D0E7C00862070243E40837E7EA086A
:1012F00063071A43D34BE4089F4200D12FE724032E
:10130000250B7C05640DC2E6CA462200024358D173
:1013100063460E00029C0393039B5746DA08E7E7F7
:10132000C94CFF1A144092E6C84D7A1C2A4200D0DC
:1013300084E022000243002F00D0EFE0002A00D119
:10134000E5E0624602990A4300D1C5E06346C5184C
:101350008C4685428041644440422418230202D5D1
:10136000B94B01371C40BA460395D5E76246851A4A
:10137000A842924152429146029BE31A1A004B4600
:10138000D21A130091461A026CD44A464C462A439C
:1013900000D03AE600260024002578E6029953465C
:1013A0000D00203AD540202B06D04022D21A0B0047
:1013B000934062461A4393465B465A1E93411D432F
:1013C00019E653465A1E012B00D1C6E09D4EB24588
:1013D00000D1BDE688460E000125382A10DC1F2A00
:1013E0007FDC20212500891A070088408D40D740E6
:1013F000D440411E8841029B3D431B1B0543029381
:101400006246551BAC459241029B52424F469C1A84
:10141000F6E5002D00D0B7E0002A00D1F0E001266B
:101420000E4063460298D90842070A43C40896E66C
:10143000854CFF1A14406207E40860E781498A423C
:1014400000D1C9E06346C11881428041029B4042FD
:10145000E3181B18DD075C08072349080D43170034
:101460002B4010E763461D1AAC4592410126029BB2
:1014700052421C1B8846A41A0E40C6E56346C51896
:10148000029B854280419C464042644424180127C7
:10149000230200D4F5E6022741E66346C51AA842B6
:1014A0008041029B4042E41A0127241AA8E5029DCC
:1014B00052462B00203AD34019005346202B06D029
:1014C0004022D21A2B00934062461A4393465D464F
:1014D0006B1E9D410D4315E66207C0080243E408F8
:1014E0000DE7110027002039CF40202A05D04021E8
:1014F0008A1A9440250005430395039D6A1E954171
:101500003D437DE7002A00D144E701260E406346B3
:10151000D908029B5A070A43DC08F0E6002A28D0C3
:101520006246029FC0083A4300D1DCE662071043DE
:101530008022E4081203144209D0FD08154206D1A6
:10154000634601262C00D8087B0718430E40420F43
:10155000C000C0085207024301E663461D1AAC45AD
:101560009241029B52421C1B0E0088460127A41A7E
:1015700046E56346D908029B5A070A43DC08EEE5B4
:101580006346029C0393C7E6C008002A00D1AAE67E
:10159000620710438022E40812031442D7D0029F4E
:1015A000FD081542D3D163460126D8087B072C00DD
:1015B00018430E40CBE70A002700203AD7402029E5
:1015C00005D04022521A9440250005430395039DFF
:1015D0006A1E95412F4310E614000025002256E5AF
:1015E000029B60449946604592414C44524205003A
:1015F000A4184CE71A001C002A4300D0B3E6C9E641
:10160000802400262403AEE520210025091A17E5D1
:10161000002200250B4C3AE5002D00D1F6E54B46A3
:10162000DA1B9246002F00D16FE6382A05DC8026AF
:101630003604344388460E00D1E688460E00012564
:10164000DEE6C046FF070000FFFF7FFFFE07000049
:10165000002D00D168E64B46D91B002F01D18A46E8
:10166000A7E50127382900DDC7E5802212041443CD
:10167000AFE5C0460B00020070B5164D0C0382B0FA
:101680004900002000920193240B490DDE0FA9426E
:1016900004DD1148814203DD104BF01802B070BD2B
:1016A0008020400320430E4C641A1F2C08DD0D4B94
:1016B0005B1AD84003005842002EEFD11800EDE726
:1016C000094B009A9C46030061448B40E24013435F
:1016D000F1E7C046FE0300001D040000FFFFFF7F8E
:1016E0003304000013040000EDFBFFFF10B5041EDF
:1016F00010D000F05DF80E4B1B1A5B055B0D0A283D
:101700000FDC0B222100121AD14015300A0384404D
:10171000120B01E0002300221B05134320001900D7
:1017200010BD22000B38824012030024120BF3E795
:101730001E0400008446100062468C461900634671
:1017400000E0C0461FB500F009F9002801D40021CF
:10175000C8421FBD10B500F049F84042013010BD2D
:1017600010B500F0FBF8002801DB002010BD0120BF
:1017700010BDC04610B500F0F1F8002801DD0020D2
:1017800010BD012010BDC04610B500F073F8002850
:1017900001DC002010BD012010BDC04610B500F0D6
:1017A00069F8002801DA002010BD012010BDC046F4
:1017B0001C2101231B04984201D3000C10391B0A81
:1017C000984201D3000A08391B09984201D3000945
:1017D000043902A2105C40187047C046040302029C
:1017E000010101010000000000000000F0B55746B3
:1017F000DE464E464546E0B50D000400E80F834640
:101800000903D80F090B824619488C461F0369004B
:101810005E00490D3F0B760D814218D086420FD0F5
:101820000120B1420DD1BC450BD1944209D1D34521
:101830001CD0002905D160462043431E984100E09A
:101840000120F0BCBB46B246A946A046F0BD01202F
:101850008E42F6D1614639430F0017432743F0D13A
:101860005B465246981A431E9841EAE70020E8E793
:10187000FF070000F0B557464E464546DE46E0B548
:101880000D000F03390B83B004008046019158000E
:10189000E90F314F400D8C466E0019038246914688
:1018A000760D090BD80FBE421FD0BA450FD0002EBF
:1018B0002FD15546019E3443002D27D10A433AD0FB
:1018C000002C45D100281AD10120404217E01143D5
:1018D0003BD1002E02D1019F2743F3D0844509D18B
:1018E0006346002BF0D0604609E0019F27432CD1CE
:1018F000B24524D063460220013B1840013803B0B2
:10190000F0BCBB46B246A946A046F0BD002CD9D0DB
:10191000E4E75446002CEDD08445EBD15645E9DC94
:10192000DEDB019B8B42E5D8DAD1C845E2D8002046
:10193000C845E4D2D4E70020002CE0D0DAE7114318
:1019400003D18445D6D10020D9E702204042D6E712
:101950008445E6D0CEE7C046FF070000F0B5574605
:101960004E464546DE46E0B50D000F0304008046B6
:10197000E80F390B844683B05800304F400D019179
:101980001E03690082469146490D360BD80FB942B5
:1019900020D0BA450FD000292BD101990C435146D4
:1019A000002937D1324338D0002C44D1002819D136
:1019B0000120404216E0164313D1002902D1019FB5
:1019C0002743F3D0844520D063460220013B1840D2
:1019D000013807E0019F274303D18A45F4D116431C
:1019E0001FD0022003B0F0BCBB46B246A946A046B9
:1019F000F0BD5446002CE7D08445E5D15145E3DCE9
:101A000003DB019BB342DFD80FD06346002BCFD05E
:101A10006046E7E7002CC9D0D4E70020002CE1D0D5
:101A2000D2E78445D0D10020DCE7C845CCD80020DF
:101A3000C845D7D2E9E78445E3D0C5E7FF070000F2
:101A400073B51E003F230B40802119430191140000
:101A5000050081890022406801F049FBFF2C17D95D
:101A6000019A2302124C13431C4303220A232868C1
:101A7000019401A900F080FC31000A23069A28682D
:101A800000F07AFCA9896868012201F030FB73BD7F
:101A90002868002C09D0019B24021C4340232343C7
:101AA000019302220A2301A9E4E70A230122FAE7AB
:101AB0004080000073B5040015001E00019172B64D
:101AC0003F22019B1340019381890022406801F06D
:101AD0000EFB002D18D0019B2D021D4340232B43EC
:101AE000019302220A2301A9206800F045FC0A2381
:101AF0003100069A206800F08DFC0122A1896068FF
:101B000001F0F5FA62B673BD0A230122EBE7052363
:101B100030B585B002AC1721009300222300FFF7F7
:101B2000C9FF002004230100E55C020E0902000247
:101B300028431143013BF7D205B030BD052330B532
:101B400085B002AC1521009300222300FFF7B2FFFD
:101B5000002004230100E55C020E09020002284374
:101B60001143013BF7D205B030BD0000F0B50400D1
:101B700085B0C1890022806801F0B9FA012001F026
:101B8000B9F90122E189A06801F0B1FA0022042329
:101B900011000093200003ABFFF78CFF884B039AE2
:101BA0009A4200D0FEE702260125002700223621B6
:101BB000200003AB0096FFF77DFF039B814A36218F
:101BC00013402B43002220000393009603ABFFF742
:101BD00037FF04223621200003AB00960397FFF75E
:101BE0002FFF3A002C21200003AB00960397FFF74C
:101BF00027FF06222C21200003AB0095FFF720FFD2
:101C000032002C21200003AB0095FFF719FF3200B2
:101C10002C21200003AB00950396FFF711FF032250
:101C2000362103AB200000950397FFF709FF28003A
:101C300001F060F9F0230322362120000393009580
:101C400003ABFFF7FDFE3A003621200003AB009600
:101C5000FFF730FF039B5B4A362113402B433A00CA
:101C600020000393009603ABFFF7EAFE042303AAC8
:101C7000242120000393009513003A00FFF7E0FEB3
:101C8000042303AA2D2120000393009613000422AD
:101C9000FFF7D6FE032303AA2D212000039300950E
:101CA00013000622FFF7CCFE03AA13002D21062203
:101CB000200000950397FFF7C3FE04230A22009338
:101CC0002D2103AB2000FFF7F5FE039BDBB2BB42E7
:101CD00007D012222D212000009503AB0396FFF7B9
:101CE000AFFE1E2303931C3B04222D2120000093F2
:101CF00003ABFFF7A5FE0125032306222D212000BB
:101D00000393009503ABFFF79BFE002306222D21D2
:101D100020000393009503ABFFF792FE04230A22F1
:101D200000932D2103AB2000FFF7C4FE039B10227C
:101D3000D90600D09AB21F210B2301260225039257
:101D40000A4041316B440A431A7020000E2200966B
:101D50003539FFF775FE1C4B20000393002203ABBF
:101D600036210095FFF76CFE80231B0206222D21F1
:101D700020000393009503ABFFF762FE300001F0F3
:101D8000B9F8200003AB002236210095FFF792FE40
:101D9000FE22039B1202134020000393002203AB98
:101DA00036210095FFF74CFE00230A2203932C21D5
:101DB0002000009603ABFFF743FE05B0F0BDC04620
:101DC0003001CADEFCFF000001030000F0B50A2567
:101DD0000E000421002289B0B04B6D442B8004AB6F
:101DE000009103920400FFF765FEF279049B002A3C
:101DF00000D04DE18022D203134304932B88DB08EB
:101E00002B80C022337A92021B04A5491340049A06
:101E100002270A400421134320000022049300916A
:101E200004ABFFF70DFE2B002E2120009D4A0097EA
:101E3000FFF706FE6D2303936C3B00932E2103AB4B
:101E40002000994AFFF7FCFD984B5B78012B00D1ED
:101E500022E1974B04252E212000964A03930097F8
:101E600003ABFFF7EDFD944B07222B2120000393DA
:101E7000009503ABFFF7E4FD012726230B222B215E
:101E800020000393009703ABFFF7DAFDD8230B2262
:101E9000282120000393009703ABFFF7D1FD874B68
:101EA0000C22282120000393009503ABFFF7C8FD07
:101EB0001623FF193A00272120000393009703AB54
:101EC000FFF7BEFD8D232A002721200003930097F2
:101ED00003ABFFF7B5FD64230622272120000393FF
:101EE000009703ABFFF7ACFD754B08220393272146
:101EF00003AB20000095FFF7A3FD7389002B01D1F0
:101F0000704B73810227042573892022272120002A
:101F10000393009703ABFFF793FD6B4B0C22232138
:101F200020000393009503ABFFF78AFD674B2A005F
:101F3000232103932000009703ABFFF781FD0022CC
:101F4000B17991420AD04023033D2121039320001F
:101F5000009503ABFFF774FD2A0003210F253078AD
:101F600073790540DB062B43FF2500012840C0257F
:101F7000034370782D0380042840F825034330790B
:101F8000ED04800528400425034309050B43520452
:101F900013431F21002220000593009505ABFFF796
:101FA0004FFD7178B2784A4B0A43F1791204490324
:101FB0000A431A600821002220000095FFF740FD27
:101FC00001264223022700220D21200003930096C0
:101FD00003ABFFF735FD3F4B03AA2E2120000393EF
:101FE000009713003C4AFFF72BFD3A4B0022039366
:101FF0002E2103AB20000097FFF722FD237C334204
:102000002FD000221A21200006AB0095FFF752FDC9
:102010009622069B52001B0D1B0513431A2100221A
:1020200020000693009506ABFFF70AFD2B4B00221C
:102030000C2120000793009707ABFFF701FD032257
:102040002900200003AB0096FFF734FD1023039A0C
:1020500029001343039303222000009603ABFFF7EC
:10206000EFFC202303931E3B20000093242203ABAC
:102070002721FFF7E5FC04232000009300220F2115
:1020800007ABFFF717FD07988007C00F09B0F0BD39
:10209000134A13400493B4E6124BDBE6F428000025
:1020A000FFFFFCFF0428000006080000A60900202E
:1020B000070600000618000008054008A05C0400A0
:1020C0005E013B354110000007A902259B880000F6
:1020D000B8010020344000000418000088130000FC
:1020E000FFFFBFFF07160000F0B5914A89B0914B82
:1020F0000292127805009A700B22042499720F0044
:10210000009209210022FFF79BFC8B4B08211A68E3
:102110008A4B280013430593002205AB0094FFF778
:102120008FFC82230593813B009300220D21280020
:1021300005ABFFF785FC824E002233000F212800FB
:102140000094FFF7B7FC33687E4A1342F3D0029A3B
:102150000299127801320A7080211A00C9010A40DE
:102160000B4200D1C7E08123DB0100220F212800B0
:102170000593009405ABFFF763FC0022009406ABC7
:1021800010212800FFF796FC7F22069B6E4C13401F
:102190000693192B06D80093002223001121280052
:1021A000FFF788FC00230A2220006849A37002F090
:1021B00049FD061E00D09CE0637BBB4200D098E046
:1021C0002800FFF7A4FC624C206061602800FFF744
:1021D000B5FC0200FA200B0000215E4F00053A60BA
:1021E0007B6012184B4111001B060A0A1A43042394
:1021F0000A21280007920093012207ABFFF720FC79
:10220000079A13025B0A58020023110E524A121851
:102210004B413000514E524903960A604B6012CC3C
:10222000039E31542606090A01303143240A04284A
:10223000F6D112CF00204B4F39542606090A01303F
:102240003143240A0428F7D10024474F1E06100A00
:102250003A55190A0643013432000B00042CF5D11B
:10226000029A424B127809219A7017222800009294
:102270000022FFF7E5FB304B08211A683C4B280091
:1022800013430593002205AB0094FFF7D9FB062307
:10229000059A0D2113430593012300222800009382
:1022A00005ABFFF7CDFB0223032200930F2105AB03
:1022B0002800FFF7FFFB8123059ADB001A4218D1A3
:1022C00080271F4E002233000F2128000094FFF7C3
:1022D000F1FB33683B42F4D0002205AB0F2128000C
:1022E00000940597FFF7ACFB029B029A1B78013321
:1022F000137009B0F0BD1F4B28000593009405AB87
:102300000F21FFF79DFB0124E02328000593032202
:1023100005AB36210094FFF793FBF02303220593CE
:1023200036212800009405ABFFF78AFBE1E7C046A1
:102330007C01002099090020B80100200D800000D8
:10234000B401002000D02724980100208909002032
:102350009001002088010020344000007A0900200C
:10236000800100207E0900208209002070090020E1
:102370001980000000902724F0B540248BB0039012
:1023800000680992026822430260214A089212689A
:10239000009200221000019202329446039A099C96
:1023A0001268A04215D11A4C8021A44694680C42B0
:1023B00019D1013026E0089C05952468009E019FF4
:1023C0000494049C059DA41BBD41002D1AD19C4280
:1023D00018D865466646946825403442EBD00C5CBC
:1023E00001301473DAE76446009E019F2468069466
:1023F00000240794069C079DA41BBD41002D01D11C
:102400009C42D3D9402113688B4313600BB0F0BDBD
:1024100010080020F0B58DB00991402108930368A1
:102420000A921A6804000A431A60344A1268009239
:1024300000220192013299680800104011420FD128
:102440002E4B0B930A9A236890421AD1802294460D
:102450002A4A029262469D6815423ED1013035E01B
:10246000D968E8E70B9A039615680099019A0295D6
:10247000029E039F761A9741002F27D1089A964211
:1024800024D89D6802222E0016401542EAD000256D
:102490001A4A1D739446236801359E6837002F4001
:1024A0002E4204D0DB68099A13540130CAE7624611
:1024B000166805970496049E059F0099019A761A5E
:1024C0009741002F02D1089A9642E6D9402122680E
:1024D00013688B4313600DB0F0BD029A156800229B
:1024E00006950792069E079F0099019A761A9741D2
:1024F000002FEBD1089A9642ACD9E7E710080020EC
:1025000010B5102488B02200002104A802F0A8FB16
:1025100000210822684602F0A3FB032302938023D4
:1025200002A85B020393059402F0F0F8011E01D0AB
:1025300072B6FEE7202300906846019302F028FA65
:10254000002801D072B6FEE708B010BD7FB510229A
:10255000002101A802F084FB022300938023684637
:102560005B01059302F0BAFA002801D072B6FEE7CB
:1025700007B000BDF8B507000E0015000024E2000A
:102580005242380031003832FDF748FE28550134F8
:10259000082CF4D1F8BD0000F0B593B00DAC00F0FC
:1025A00085FCFFF7ADFFFFF7D1FF142200212000CB
:1025B00002F056FB08220420D24DD34E2B6D310081
:1025C00013432B652B6D002713400993099B2B6D3B
:1025D000002203432B652B6D034090200893C00518
:1025E000089B00F084FD80210022C848C90000F04B
:1025F0007EFD21230D938223DB0363602100C3480A
:10260000A76000F0D9FC0D96902001262100C0059E
:102610006660A760E76000F0CFFC042002230D9005
:1026200090206360033321002361C005A660E7604A
:1026300000F0C2FC8023DB000D932100B3486660EC
:10264000A760E76000F0B8FC0420B14BB1491A6AFA
:102650000A401A625A6A0A40AF495A620A688243BB
:102660000A60AE490A6802430A609A6AAC490C30B3
:102670000A409A62DA6A0A40DA6231003A0000F0EF
:102680004BFC102000F072FCC0232000DB050D93F2
:1026900000F0ACFD08223900200002F0E1FA2B6EB8
:1026A00033420CD12B6C33432B642B6CB3432B6420
:1026B0002B6E33432B662B6E33400A930A9B994A49
:1026C00013690F2BFCD9A0235B002000238001F0AD
:1026D000F1FC80229448954B8227E0260825036070
:1026E000002392008261E93AFF3A7F00F600C2615E
:1026F000113A47608360C6600361436103624362CD
:102700008362C2620363456302F024FA002801D0A9
:1027100072B6FEE7864C874BA060236080239B0047
:10272000A361E93BFF3B20616061E361206260627D
:10273000A062113B206320006760E660E36265638E
:1027400002F008FA002801D072B6FEE77A4E300097
:10275000FFF70CFA30007949FFF738FB002803D067
:102760002000E56102F0F6F9754A764C136850686E
:1027700008226270063A1100635401061B0A0B43DB
:1027800019000132000AD2B20143F4D16E4800F0C0
:10279000D5FF182000F0C8FF01F0C2FD6B4B1A787E
:1027A000002AF9D000201870694D2870272868D9B0
:1027B000684B06931B78002BEED00222664D002159
:1027C000FF32280002F04CFAFF232B705C4B0BAA5F
:1027D00018685968FFF7CEFE0822A81C0BA902F062
:1027E00047FA00260A245D4B0793F3181F685B68BD
:1027F0003B431ED05A4BF31803CB03000B4318D0B6
:102800000DAAFFF7B7FE2300E11D1A1BD2B29446B2
:1028100099426DDAFBB2642118000593FDF772FC52
:102820002F19387264210598FDF7F2FC0A34797289
:10283000E4B29C2308365B009E42D4D1494A6C70B6
:102840000292FF22C8210192474A484B4900009258
:1028500000202A0000F078FF282000F04BFB01F058
:102860005FFDA02200215200079802F0F9F9A02292
:10287000002152003A4802F0F3F90023069A13703F
:102880008AE71D232F4CC8212370384B354F059301
:10289000FF23354E2200490001930297059B0096C5
:1028A00000F052FF282000F025FB01F039FD2978C7
:1028B0002B4BCA009B180CCB1A4314D01E48FFF7B1
:1028C00013FCDD23C82123702233287822000193D2
:1028D0004900059B0297009600F036FF282000F083
:1028E00009FB01F01DFD1A4B18780130C0B25BE7FF
:1028F000242204A880186246825CEA540133DBB2C9
:1029000083E7C04600004048101000000000104857
:1029100000005048EFEFFFFF2400504820005048CF
:10292000FFFBFFFF00180060AC0700200020004103
:102930004807002000300041B4090020A60900200B
:10294000F01E001045060020DF88DF8842040020CA
:10295000400400204104002043040020C001002066
:102960000003002085310410409C00004405002035
:10297000F8B5002538262F004418320020780021B1
:10298000083EFDF757FC330005430F43013408337D
:10299000F3D128003900F8BDF7B5384C23781D2B4A
:1029A00064D102212000FFF7E3FF0023344A1D0019
:1029B00016003768874204D177688F4201D101350C
:1029C000EDB20133DBB20836272BF2D1002D04D152
:1029D0002C4B1B78DB00D31803C3002319001F0006
:1029E000294D2B7010685668304302D00123013105
:1029F000C9B20137FFB20832272FF3D1002B00D024
:102A00002970A27AE37A110019432FD06425554327
:102A1000ED182800FEF76AFE06002800194B1B4C33
:102A20001B786843DB00E4180F00FEF75FFE184ACE
:102A3000184BFDF7BBFF184A00900191174B30006F
:102A40003900FDF7B3FF164A164BFDF74BFC0200A9
:102A50000B0000980199FDF745FC3B003200FDF7A3
:102A6000A5FFFDF721FC0023206063600222002106
:102A7000FF32024802F0F4F8F7BDC04644050020DA
:102A8000000300204004002041040020C001002079
:102A90002D431CEBE2361ABFF697DD9387859A3FEC
:102AA00017B7D100DE02E13F0122014B1A707047D7
:102AB0004204002072B6FEE78021064B49005A6DA1
:102AC00082B00A435A655B6D0B400193019B02B0D3
:102AD0007047C0460000404810B5040088B0182276
:102AE000002102A802F0BCF8C0232268DB059A424C
:102AF0002BD10124022302A80294069301F0EEFFD9
:102B0000002801D0FFF7D6FF114B1A6E22420CD1DC
:102B10001A6C22431A641A6CA2431A641A6E224376
:102B20001A661B6E23400193019B002212201100A4
:102B300000F0F2F9122000F019FA00221920110019
:102B400000F0EAF9192000F011FA08B010BDC046F3
:102B50000000404810B504008AB01422002105A8E6
:102B600002F07EF82368284A934225D10121274BA1
:102B700090209A6DC0050A439A659A6D0A400292A8
:102B8000029A1A6D03310A431A651B6D0B400193BB
:102B9000019BE0231B020593022305A906930993D9
:102BA00000F00AFA1A4B1B491A6A0A401A625A6A5A
:102BB0000A405A620AB010BD174A9342FAD18021E6
:102BC000124B49019A6D90200A439A659A6DE02450
:102BD0000A4004210492049A1A6DC0050A431A653A
:102BE0001B6D05940B400393039B022305A90693D9
:102BF000013B099300F0E0F9054B1A6AA2431A62FF
:102C00005A6AA243D5E7C046002000410000404870
:102C100000005048FF1FFFFF00300041FEE7FEE7C5
:102C20007047704710B500F04DF910BD10B5054C58
:102C30002021200000F061FA0121200000F05DFA5F
:102C400010BDC0460000104810B501F029FD10BDB0
:102C500010B501F02BFD10BD10B501F02DFD10BD1C
:102C600010B500F0D9FD10BD10B500F077FE10BD15
:102C7000074B9A689B681B065B0F920706D5054AAF
:102C8000013BDA401300044A13607047034AF8E737
:102C9000000040480048E801C80900200090D00327
:102CA00070470000F8B5444B444A1968444C454B02
:102CB000002911D11969002902D1996B00290BD083
:102CC00001239360FFF7ECFFBFF34F8F3E4BE360B0
:102CD000BFF34F8FC046FDE73C49A160A168116179
:102CE000202259680A435A60402259680A435A60B0
:102CF000802259680A435A60042259691142FCD063
:102D00003021DA6932488A4310390A43DA61DA69D4
:102D10000240DA618022D86952000243DA612D4B09
:102D20001A682D4B9A422DD01E222C4B18689043C6
:102D30000E3A02431A600122186802431A60284AB8
:102D40002848D4680440F02040052043D06080200B
:102D5000D46800042043D0601868234A10408022C1
:102D6000920002431A601A681143196019681F4AD9
:102D70001140C02252010A431A6080221968D20011
:102D80000A431A60C02000220326FF258000170096
:102D90002C003740FF00BC40154993089B005B188E
:102DA00019580132A143C024BC4021431950202AA4
:102DB000EDD162B6F8BDC046940040480400002042
:102DC00000ED00E0000050480400FA050000041087
:102DD000FFFBFFFFF81E0010CCECBCFC9400504839
:102DE00000004048FFFFFFC03FFCFFFFFFC7FFFFA1
:102DF00000E100E010488546FFF754FF002103E0A2
:102E00000E4B5B58435004310D480E4B42189A420A
:102E1000F6D30D4A02E00023136004320B4B9A42B2
:102E2000F9D30B4A02E0002313600432094B9A42A3
:102E3000F9D3FFF7B1FBFEE700000120944C04102A
:102E400070090020D80900207C01002070090020B2
:102E5000C00000207C010020FEE7000070B5114E8C
:102E600005003378002B01D1012070BD01F030FE48
:102E70000400FA2031788000FDF744F901002000B9
:102E8000FDF740F900F07EF8041EEDD1032DEBD8DC
:102E9000020001202900404200F03EF8024B2000D1
:102EA0001D60E2E7CC090020D009002010B5032006
:102EB000FFF7D4FF041E03D1FFF7FEFD200010BD75
:102EC0000124FBE7034A044B11681B785B1813606D
:102ED0007047C04610080020CC090020014B18683C
:102EE0007047C04610080020014B18687047C04664
:102EF000D009002070B50400FFF7F0FF0500631C47
:102F000002D0044B1B78E418FFF7E8FF401BA042F7
:102F1000FAD370BDCC09002010B5FF2403220B00AA
:102F200021000240D20091409B012340C9439340BD
:102F300000280ADBC0240B4A800880008018A40007
:102F400002590A401343035110BD0F2210400838A4
:102F5000054A800880008018C26911401943C16188
:102F6000F2E7C04600E100E000ED00E0002805DBEC
:102F70001F2318401E3B8340014A13607047C04620
:102F800000E100E08022431E5204012093420DD252
:102F9000C021074A07485360036A09061B021B0A3F
:102FA0000B43036200200723906013607047C04604
:102FB00010E000E000ED00E00023F7B50A6814001F
:102FC000DC4000D1F7BD01269E40324200D184E0B2
:102FD00003245D00AC400322E4434F6800943A4070
:102FE000541E012C31D88568009C2540AC46CC6825
:102FF0005D00AC4065462C43846045683C09B543A0
:10300000012634409C402C434460C568009C5E000F
:1030100025408C68B4402C43C460022A17D1072590
:103020000F261D40AD00AE40B446DC08A4000419D4
:103030000194246A26006446A643B4460E69644699
:10304000AE402643019C266201E0032ADDD10468DC
:10305000009D25402C005D00AA4022430260C02252
:103060009202174239D08022D20217420BD080251B
:1030700001229026ED059A40EC68F605B0422ED16B
:1030800094432243EA60FA020BD580250122902660
:10309000ED059A402C69F605B04222D194432243B3
:1030A0002A617A020BD5802501229026ED059A40EF
:1030B0006C69F605B04216D1944322436A61FF035E
:1030C0000BD5802501229026ED059A40AC69F605C6
:1030D000B0420AD194432243AA6101336EE712043D
:1030E000CEE71204DAE71204E6E71204F2E7002A58
:1030F00001D0816170478162FCE79022802310B586
:10310000D205DB05904203D1DA69114206D110BD28
:10311000DC690A042242FAD0DA6100E0D961FFF7E3
:10312000C3FCF4E70120704701207047A923114A2E
:103130009B00D1580433D358C9B21B061B0C0B4358
:10314000AB2189007F205158002B0DD00B290BD8C3
:1031500006224A43773A1E2B08D8A220FF30584354
:10316000054BC018800A801840B2704706325B08D1
:10317000F1E7C04600140060A046000070477047A9
:103180007047704737B5C4684023210005001940D7
:103190001C4225D10822684601F062FD002C0DDAA0
:1031A0006A692B69684600920193A40403D5FFF76E
:1031B000E7FF01203EBDFFF7EFFBFAE7630105D50E
:1031C0006B6968460093FFF7DAFFF2E76400F0D519
:1031D0006B69684600932B690193FFF7CFFFE8E71F
:1031E000A401E6D5FFF7CDFFE3E70000F0B5A94B5A
:1031F00085B01A68A84B9A4200D045E10F22A74B30
:103200001F681D681E6819681B683F0A2D0B360C65
:103210001740154016401B0E083A13400393012334
:10322000090D11400291019300239D4C2371984296
:1032300001D0FFF751FCC0230321DB05DA680F2022
:103240008A43DA60DA682D018A43DA60954B964A40
:103250009C469B6A9E21134062469362934B890071
:103260005A5882433243F0265A5004395A58B243CE
:103270002A435A505A5882433A435A50019A002AD4
:103280000DD02C395A58083882430298024338200E
:103290005A505A5882430398C00002435A50FF20A4
:1032A0005525834AC227D16C7F0081432943D164CD
:1032B0006621966D864331439165C426D16E7600B2
:1032C00081430D431D21D5669D598543294399515D
:1032D0005921DD5985432943D951C62149000E00A2
:1032E0005D585B398543FF39294399510121156F99
:1032F0000D43156766686F4D2E408025ED013543FF
:103300006560FC2567686C4EAD0337403D439027F0
:10331000656065683F052D022D0A2F43E82567602B
:10332000A768ED0337403D43E027A560A568BF05CA
:103330002D022D0A2F437625A760A76887433D43BA
:10334000A560A7685B4D2F40E825AD013D43A56012
:10335000E568C2272E4080256D033543E560E568AA
:10336000564E7F002E4080256D053543E5600525CE
:103370002669864335432561E5681A268543EB387F
:103380002843E060E5684B480540A020C000284382
:10339000E06004206569284360618020656900045D
:1033A0002843606180206569800528436061444D41
:1033B000444805829E25AD005D59C17485745D2524
:1033C00005759D25AD005D5945753F4DC58292251A
:1033D000AD005D594176057612258576D56CC576AA
:1033E0003A4D8583956DC17785774518EE77D66E12
:1033F000851CEE77C426364D760045849E59451DC2
:10340000EE772126851DE977C51DEE77314DDE5912
:1034100007000585C6250837FE776D005E59050053
:103420002A352E7005002B35297005001B272C35F9
:103430002F70156F02002D32157005000022060056
:103440002E352A70244D0C36056045608660C260BA
:10345000006825682060196180236069DB050343EB
:10346000962063611D4B18601A71C023DB055A68F2
:1034700060465A606246526C0A434264026C1143D1
:1034800001645B6805B0F0BD0023082607253700FE
:103490000193C9E6F81E0010CCECBCFCE81E00103D
:1034A000C000002000180060FFFFFFBF0014006094
:1034B000FC140060FF00FFFFFFFF00FFFFFFFFC0E5
:1034C000015E0000140800200152000001150000F8
:1034D000012200000123000024080020C40800206D
:1034E00050235843084B10B5C0180023CC5CC218B9
:1034F0002E3201331470052BF8D11F22323003789D
:103500001340037010BDC046DC000020502330B5CE
:103510003F255843064BC4182378AB430B43237015
:103520006378AB431943034B6170C018027030BD20
:10353000DC000020090100208023DB02984209D230
:103540001F4BC2B25A74020A000CD2B2C0B29A74B3
:10355000D874704780235B0398420ED2184B8208C0
:10356000D2B25A74820AD2B29A740422800CC0B2C7
:10357000D874D97C0A43DA74EBE78023DB039842E2
:103580000CD20F4B0209D2B25A74020B000DD2B208
:10359000C0B29A74D8740822D97CEBE780235B040C
:1035A0009842D6D2064B8209D2B25A74820B800D51
:1035B000D2B2C0B29A74D8740C22D97CDAE7C04671
:1035C000C000002070B5102504002A0000211C3026
:1035D00001F046FB23001833A361A368621D236238
:1035E0001D4B1B68463BD9B2D1771A0AD2B2A11D36
:1035F000CA7740211B03E21D1B0FD377D37F1D43E6
:10360000D57763780B4224D18020D17F0143D177D5
:1036100018007E2290430422217F01430A4322772F
:103620001022617F1A40114306220A43627722006A
:10363000FF210832D177E26A5278920703D501223E
:10364000617F0A4362779B07DB0FDB013C34237009
:1036500070BDD07FDAE7C046C408002010B5054B26
:103660001A79002352B29A4202DA00F089FA030072
:10367000180010BDC000002073B5040001A8FFF7BA
:10368000EDFF0300C420002B3CD1C0230321DB0548
:10369000DA6820008A43DA60DA6826008A43DA6052
:1036A000802223781C491A430A717F210B401A009B
:1036B00050235343194A18309A189060184D50609F
:1036C000A0785B191870174B3C369C6013780B4040
:1036D00031780B43137072B66278930613D500F0FD
:1036E0006FFA0500606800F055FA012331786278BE
:1036F00080391A404B4259414019C9B200F06CFB65
:10370000C0B262B676BD012331781A4080394B428F
:1037100059416068C9B2F1E7C0000020DC00002018
:1037200007010020C4080020024B1870024B1870DB
:103730007047C0460801002058010020014B186066
:1037400000207047D4090020F0B589B01F000EABEF
:10375000160004CB04001B7802920393019100F041
:103760002FFA0500019800F015FA451905A8FFF792
:1037700075FF0522204906A801F07AFA06A9002063
:10378000FFF7AEFE002221001000FFF7BFFE1B4B2B
:103790001A681B4B19005A62552228312A330A70C5
:1037A0004A701A700298FFF7C7FEC023154C9B00A1
:1037B0002380002314490398A163A11CCB87210017
:1037C000124A4231A370A660E366114E2367109B34
:1037D0000870200062636267A3676560E662266323
:1037E0006564A764FFF7EEFE3000FFF7EBFE2000F4
:1037F000FFF742FF09B0F0BD8C4C0410D409002043
:10380000DC00002044080020293104102531041078
:103810008408002070477047F0B5C024E405E569CE
:10382000666885B06660354300F0AEF9AB0133D50C
:103830004022E369434E1340B0682B43C360436B9F
:103840009847B368012831D1DC6A3F4A002C2FD158
:10385000C0230320DB05D9688143D960D96881433F
:10386000D9603A493A488B6A03408B627F211379C9
:103870000B401371B768002D01DB6B005CD5FFF7BF
:1038800055FC786102A800F05DF9B3681861B06872
:103890002100836BB46098472800FFF7BBFF00F05E
:1038A000F3FCC023DB055B6805B0F0BD1C6BCCE707
:1038B0008023217827000B43137150233C374B435F
:1038C0003978244A01917F21981802780A40019999
:1038D0000A4302702200183242601F498260A278B7
:1038E0005B181A7062785307C4D5C0230321DB0527
:1038F000D8688843D860D8688843D860930612D5C2
:1039000000F05EF90190606800F044F90123397815
:10391000627880391A404B425941019BC9B2C018A4
:1039200000F05AFAA6E7012301991A4080394B4268
:1039300059416068C9B2F3E76B01A8D5FFF7F6FB00
:103940007861A4E7C4080020C000002000180060CF
:10395000FFFFFFBFDC0000200701002010B5FFF7CC
:103960005AFF10BD00210A4B020010B558690B0028
:10397000FCF76CFC03220023FCF768FC8022002388
:10398000D204801859414B01C00E184310BDC046E7
:10399000D008002006490B78002B06D00122054BE9
:1039A000186902431A6100229A6001230B72704762
:1039B000D00800200010006030B5104988688B687E
:1039C0008342FBD10028F9D00D4CC3B263430512EA
:1039D0006C431B121B190B4A10335B11D36110612E
:1039E000C868CB688342FBD10028F9D0064B81110F
:1039F0004B4380331B129361506130BD0010006057
:103A0000F6BC0800D008002053070000F8B5EFF31B
:103A1000108772B6144B154E1B69346F756F321DCB
:103A20000360D06FF169124A181AFCF749FB0023B2
:103A30000200A4185D41F36FAB4203D80CD1B36F01
:103A4000A34209D901200A4AF1694042FCF738FB38
:103A500000230200A4185D41B467F56787F310885E
:103A600029002000F8BDC04600180060D0080020E2
:103A700035060000F8B51E4C1E4E1F4AA16907000E
:103A80001B20B57BFCF71CFBC0B27071B079EDB2A6
:103A9000C0B2FFF767FF23003D331870307AED1096
:103AA00001354019FFF75EFF230038331870707A34
:103AB0004019FFF757FF230039331870B07AC0B2AE
:103AC000FFF750FF23003A331870F07AC0B2FFF7C7
:103AD00049FF23003B331870002F07D06823327A48
:103AE0003C34521953431B0A1B332370F8BDC046A4
:103AF000D0080020C000002026030000104A30B586
:103B0000956A802103002800C905032408400D425E
:103B100003D02000526A1A6030BDC022D205D1689D
:103B20002140022907D0D16821400329F4D112692C
:103B300002201A60F0E7126901201A60ECE7C04623
:103B400000180060C02337B5DB05040001A85D69DB
:103B5000FFF75CFF084B206061600198D969074A54
:103B6000401BFCF7ADFA0023020020686168801A50
:103B7000994103B030BDC046D00800203506000092
:103B800010B5FFF7BBFF10BD0022014B1A70704744
:103B900033090020682302004343DB2050431B0A03
:103BA000000C18187047000010B5034B034AD96980
:103BB000FCF786FA10BDC046D0080020350600008C
:103BC00007B501A8FFF722FF03B000BD0021F0B543
:103BD000794B89B0049001701B78784C8B4200D1EE
:103BE000B2E00B00A06AE16A626812184B410292CF
:103BF0000393EFF31083059372B6FFF7E1FFA66D11
:103C0000E76DC82200239202009001910298039967
:103C100012184B41BB4214D801D1B24211D80298BC
:103C20000399B92200235200801859410B000199D1
:103C30000200994205D800D0BAE00099914200D81C
:103C4000B6E04C204042C1170A2280197941002376
:103C50000290039100980199801859410B00039933
:103C60000200994205D800D09BE00299914200D809
:103C700097E022003C32157822002300643212784B
:103C800060331B78002A63D0002B5FD0383407A83C
:103C90002478FFF7BBFE371A484E494A3800B1690D
:103CA000FCF70EFAB36E474AC8335B19464D9F4284
:103CB00054D907266B790799C31A1B1B59185162EF
:103CC000916A0327B1439162C021C905CE68BE4302
:103CD000CE60CE68BE43CE608021966AC90531436E
:103CE00091628021966A8905314391626E79361915
:103CF0000799364F09188020396029799B190143AB
:103D00002971F021A9750F31E975711D2B4C8B427A
:103D10003DD2C023DB05D9687D388143D960D9689D
:103D20008143D960936A2A490B4093620123049A24
:103D300013702300012261331A70802362345B0008
:103D40002380059B83F3108809B0F0BD39349EE7CA
:103D5000002B01D03A349AE73B3498E73D3633786C
:103D6000C0260093079FC31A1B1BF605DF19376196
:103D7000976A17490F4003219762F7688F43BC4643
:103D8000022761460F430099F7606618B0E73000DC
:103D9000104AE169FCF794F923008433187000237A
:103DA000C5E70022044B1A700123049A1370C8E778
:103DB00001239C342370C4E732090020D00800207E
:103DC0002603000000180060C000002058090020F1
:103DD000FFFFFFBF35060000F7B500256B46DD711C
:103DE0004B1E9941324C334BA66AE76A1970531E39
:103DF0009A41230060331A702B00821B92197B4179
:103E0000A265E365230061331D7023000122623344
:103E10001A80FFF7D5FE23008C331D68002D0FD1CB
:103E20006B46D81DFFF7D2FE90342378002B04D1C7
:103E30002148FFF7AFFD012323706B46D879FEBD03
:103E40002E686F68B94212D801D1B0420FD8210054
:103E5000002398310A68E16DB6185F41B94206D374
:103E600002D1A36DB34202D32B7B002B17D16B463B
:103E7000D81DFFF7ABFE23008C331B68E26D596839
:103E80009142D1D803D11968A26D9142CCD81B7B45
:103E9000002BC9D02300012295331A70C4E77F217B
:103EA000064B1A790A401A7100229A75DA75BBE737
:103EB000D00800203409002010090020C000002094
:103EC0000023F0B504008BB0059004910B70002C1A
:103ED00000D189E0237B0393002B00D18BE0EFF32B
:103EE0001083079372B608ABD81DFFF76FFE2668E4
:103EF0006768FFF765FE361A8F4100960197019BB0
:103F0000002B05DC00D072E0009B002B00D16EE09E
:103F10002668676898218C46394B00219C44654689
:103F200028689A6D801979410692DA6D914203D81A
:103F300011D1069DA8420ED961331B78002B0AD0FF
:103F4000974206D802D1069B9E4202D801222D4BF1
:103F50001A70002303932A4B2B4A99690098FCF7A7
:103F6000AFF82A4B1A69202800D220200832801886
:103F70008022D862996A9205114399628021C025F6
:103F800003271E6BC9050E431E63ED05EE683E4018
:103F9000022E22D0EE683E40BE421ED0039D002D70
:103FA0001BD01B4D7C372E793E402E710026AE75FE
:103FB000EE750F25A8435862986A083DA843986299
:103FC000986A01439962996A0A439A62114A124BAC
:103FD000117818781E7001431170079B83F31088C5
:103FE000049B1B78002B08D120000BB0F0BD0123EF
:103FF000049A1370F1E7246969E7059CF4E7C04669
:10400000D008002065090020260300000018006089
:10401000C00000203209002031090020F0B585B031
:1040200002A9CD1D0021012429700192067B2100E7
:10403000002E1ED11D4904730F681D4C390002600B
:104040004360002908D04A689A4215D304D10A680F
:104050009446019A94450FD30161002E0FD1290097
:10406000FFF72EFF23008C3318602B78002B0AD12A
:104070002978080005B0F0BD0E000969E1E730615C
:104080008742F5D1EBE7EFF3108172B623002000F1
:1040900091331B78923000785A1C824200D0D3B200
:1040A0009134237081F31088E2E7C0465C09002058
:1040B000D0080020F8B50123574D0600EA6C1A43DA
:1040C000EA64AA6C1A43AA648021544A0904116064
:1040D000802149031160696C19436964296C0B43A1
:1040E0002B6480235B04136002884D4C4D49131CE4
:1040F000C72A00D8C82377689BB20B603B005A1EC2
:1041000093412370002F02D1B378002B1AD00122E3
:10411000454B19691142FCD01721596019690A43AE
:104120001A6100229A60013219691142FCD0FFF72E
:1041300043FCE3692362002F0FD1A020C005FFF7E5
:1041400033FD16E0C8235B032362E361374BA361B1
:10415000374B2361374B6361EFE738030A21FBF7E5
:10416000D1FF070060603448FFF71EFD874250D240
:104170006068002360603088304AA1692372A066BD
:10418000FBF79EFF102800DA102080235B01984285
:1041900000DB2B482200002100118432A86011703E
:1041A0002A69231DDA6723000026002734330D0017
:1041B0001970224AA169606826676767A667E76782
:1041C000A662E762FBF77CFF2300227894331A7023
:1041D00023008C331D6023002A00903301351D60BD
:1041E000230061331A70230062331A80154BA665D1
:1041F000E765A36462652063FFF7E2FC0023626861
:1042000012184B411048FFF709FF2800FFF732FC56
:10421000F8BD094893E7C0460018006000E100E0DF
:10422000D00800206809002000100060C2F52800B6
:104230008D5B0000ECEB6501FFEFFFFF2603000044
:10424000FF0F0000953904101009002073B56B466C
:104250000B4EDD1D290030680A4CFFF731FE2B782C
:104260003060012B0BD12300210091331B78923158
:1042700009785A1C8A4200D0D3B29134237073BD9E
:104280005C090020D0080020C0210322C905CB68AA
:1042900010B51340022B05D0CB681340934201D0D8
:1042A000FFF7D4FF10BD000037B51B4A03001268AA
:1042B00000251100194C002905D08B4225D1186921
:1042C0009A4201D02861100000216D461973E971EE
:1042D00082421DD0E91DFFF7F3FD23008C331860E7
:1042E000EB79002B10D0EFF3108172B62300200081
:1042F00091331B78923000785A1C824200D0D3B29E
:104300009134237081F3108837BD0D000969D2E71D
:104310008C342260F8E7C0465C090020D0080020F9
:104320000023F0B589B006AAD371EFF3108672B6F8
:10433000AE4BAF4C1B78002B0CD0E56DA76DFFF793
:104340003FFCA94202D805D1B84203D9230000227C
:1043500061331A7086F31088230091331B7803931E
:10436000230092331B780493049A039B934251D108
:10437000237A002B00D120E19E4B1B69DB0747D538
:1043800000232372230094331A78002A00D09CE083
:10439000230093331978002900D196E01A70964BC8
:1043A000934C1A78002A26D000221A702300260087
:1043B000013262331A7006ABDD1D28008C36FFF720
:1043C00005FC29003068FFF77BFD2B783060012B5E
:1043D00011D1EFF3108172B62300200091331B78C6
:1043E000923000785A1C824200D0D3B2220091321F
:1043F000137081F31088814D2800FFF755FFFFF7F8
:10440000DFFB0023626812184B412800FFF706FE0D
:1044100009B0F0BD23008C331B681D0000930023FE
:1044200002930593002D13D02B7B002B05D1029B0B
:10443000059501332D690293F4E72E686F68FFF745
:10444000BFFB361A8F41002F02DCF0D1052EEED9CA
:104450000020029B834203D0059B186100980095C1
:10446000674B009A1A60002826D1250006AB8C35D0
:10447000D91D2868FFF724FD06ABDB792860012BE6
:1044800011D1EFF3108172B62300200091331B7815
:10449000923000785A1C824200D0D3B2220091326E
:1044A000137081F310882200923213780399CB188D
:1044B00004995B1A13704FE700230373836805693F
:1044C000002B00D098472800CDE7494E4D4D33785A
:1044D000002B17D0FFF770FAB06E4B4AB16980B26B
:1044E000FBF7EEFD102800DA102080235B019842D4
:1044F00000DB46480011A8600020FFF7BBFA01234B
:1045000034342370EFF31083029372B6384C2D6964
:10451000261D276AF06FA26AE36A390000920193B0
:10452000281A3B4AFBF7CCFD0023020000980199B2
:1045300012184B412267636723780093002B12D136
:10454000F36F226BEB1A93420DD201203900304AEF
:104550004042FBF7B5FD226F636F0600009F921982
:104560007B4122676367231DDD67226F636FA26251
:10457000E362E3692362029B83F31088260006ABA3
:10458000DD1D8C3629003068FFF79AFC2B783060EF
:10459000012B00D003E7EFF3108172B62300200057
:1045A00091331B78923000785A1C824200D0D3B2EB
:1045B0009134237081F31088F1E62378002B00D129
:1045C00026E7FFF7FDFAA26AE36AFA2400256403EE
:1045D00012196B41994204D800D019E7904200D8D3
:1045E00016E70648FFF7D6F912E7C0463109002062
:1045F000D0080020001000606C0900201009002085
:104600005C0900200018006026030000FF0F000076
:1046100035060000002313B50E4901930B700E4BB5
:10462000019A0E48196B0E4A0140196311001400DB
:104630009131097892342478481CA04200D0C1B24C
:10464000913211700121DA6C0A43DA64DB6C0B40A1
:10465000019313BD6509002000180060FFFFFFBF34
:10466000D008002013B500240194019B6B46D81C90
:10467000FFF7ACFA074B1A78A24202D01C70FFF782
:10468000C9FF0121044B5A6C0A435A645B6C0B400E
:10469000019313BD65090020001800607047704742
:1046A00010B5FFF7B7FFFFF7F9FF10BD10B5FFF723
:1046B000F6FFFFF7D7FF10BD002382B00193019BE7
:1046C000C0230122DB05596F0A435A675B6F0193D0
:1046D00002B07047024B18688003C00F7047C04695
:1046E000000040480421044B9A688A439A609A6803
:1046F00002398A439A60704700004048024B1868AC
:104700004005C00F7047C04600004048F8B505009E
:104710000120002D00D194E02B68DB0666D42B68C5
:10472000DB0723D5924B93491868934A08408021B0
:1047300089010143196080211868014319607021C3
:104740001868884340390143196080216B68490229
:104750008B4200D076E011680B431360FEF7BEFB7E
:104760000400FFF7B7FF002800D180E004222B6887
:10477000134200D082E02B689B0700D4CBE00422D8
:104780007D4C23689343236023680C32934323605A
:10479000202322681A42FCD1784A7948916A014064
:1047A0009162D16A0140D162A168764A11408022AB
:1047B00012020A436021A260E2688A431343E36065
:1047C000EB682268102B00D091E013432360FEF7C2
:1047D00085FB2027060023683B4200D09BE0FEF7C4
:1047E0007DFB694B801B9842F5D929E0A968002917
:1047F0000ED1FFF777FFFEF771FB0400FFF77EFF96
:1048000001288CD0FEF76AFB001B6428F6D917E05C
:104810000222594B986802439A6004229868024326
:104820009A600429E7D1FEF759FB0400FFF766FF01
:10483000012800D073E7FEF751FB001B6428F5D96F
:104840000320F8BD1168514801401160002B00D0D1
:1048500084E7FEF743FB0400FFF73CFF002800D18C
:1048600084E7FEF73BFB001B6428F5D9E8E7FEF779
:1048700035FB001B642800D873E7E1E72B693E4C49
:10488000002B23D0236893432360082322681A4215
:10489000FCD110222368082793432360A268394B78
:1048A0001A4080235B021343A3600423226813434E
:1048B0002360FEF713FB060023683B4200D05AE753
:1048C000FEF70CFB801B0228F6D9B9E723680827FE
:1048D00093432360FEF702FB060023683B4200D1AE
:1048E00049E7FEF7FBFA801B0228F6D9A8E710215A
:1048F0008A432260002B00D069E7FEF7EFFA2027F9
:10490000060023683B4206D0FEF7E8FA1E4B801BE8
:104910009842F6D994E72B681B0701D4002090E752
:10492000154C6B692268402B0FD113432360FEF7AF
:10493000D5FA4026050023683342EFD1FEF7CEFAC0
:10494000114A401B9042F6D97AE74025AA432260DB
:10495000002BECD1FEF7C2FA060023682B42DDD013
:10496000FEF7BCFA084A801B9042F6D968E7C046B9
:1049700098004048FFC0FFFF00004048000050483A
:10498000FFCFFFFFFF7FFEFF88130000FFFFFEFF4A
:10499000F0B504000D0085B0002802D1012005B05B
:1049A000F0BD3022474E736893430B437360036836
:1049B000022B21D1FFF796FEFFF7A0FE0028EDD0D5
:1049C000414A424913680B40E021136093688B43CE
:1049D00061680B439360302473682340AB425CD121
:1049E00000230293029B052B68DDFEF741F9FEF7D9
:1049F0007BFAFEF733FAD2E7002B23D1FFF77EFED6
:104A00000028CBD0FFF766FE0028C7D080232E4FAA
:104A10009B013A6813433B60FEF760FA01908022E5
:104A20003B68D201134207D1FEF758FA019BC01A26
:104A30000228F4D90320B2E7E022BB6893436268FE
:104A40001343BB602368012BC5D180231E4F9B02FB
:104A50003A681A42FCD00223BA681343BB600023B1
:104A60000393039B052B14DD0423BA681343BB6037
:104A7000FFF744FE002800D090E7FFF72BFE002848
:104A800000D18BE7E022BB68934362681343BB60AD
:104A9000A1E7C046039B0133E2E77368A3432B43BE
:104AA0007360FEF71BFA070073682340AB4297D090
:104AB000FEF714FAC01B0228F6D9BBE7C046029BDA
:104AC00001338EE70010004000004048FFDFFFFF89
:104AD000014B18687047C046C8090020036810B52C
:104AE000DA0706D5062416490A6EA2430469224352
:104AF0000A669A0706D51249124C8A682240446910
:104B000022438A605A0706D50D490F4C8A68224015
:104B1000446822438A601B0706D5094A0B499368FB
:104B20000B4081680B439360C1688B0605D5044A2E
:104B30000748936803400B439360002010BDC046B4
:104B400000004048FFEFFFFFFFFF7FFFFFFFBFFFB9
:104B5000FF7FFEFFF8B504000120002C67D0636AD8
:104B6000002B65D1822261685200914200D0E3613E
:104B700000232500A3625D352B78DAB2002B05D126
:104B800023005C3320001A70FDF7E4FF022340226B
:104B90002B702168E6680B689343E0220B60D2001B
:104BA0000023964248D9F02218001201964200D004
:104BB000A36282228427636852001340A2683F02E6
:104BC0003A40022713432269A5693A401343012260
:104BD000676917403B438027BF002F403B43E7698D
:104BE000373217403B43276A4832174080223B4305
:104BF000A76A920117403B43102708220B60636AA3
:104C00002D0C3B40676B17403B43F0273F013E4074
:104C10003343042635402B4303434B60CB6908489C
:104C200003400020CB61012320665D342370F8BD72
:104C30000023236163619BE780204001B6E7C04603
:104C4000FFF7FFFF30B500240139A24201D1002057
:104C500005E0035D01340D5DAB42F6D0581B30BD5D
:104C600003008218934200D1704719700133F9E7AD
:104C7000002310B59A4200D110BDCC5CC45401335E
:044C8000F8E7000051
:044C8400F8B5C04679
:044C8800F8B5C04675
:084C8C00FFFFFFFFFF00000025
:104C9400418800CADE574156452300000000000049
:104CA400000000000000000000418800CADE5645F4
:104CB400574110020000000000418800CADE57413D
:104CC4005645210000000202080209090100000003
:104CD400210400004807002000000048000010489C
:104CE40010000004010000000024F4000100000092
:084CF40004000000DF88DF88E6
:0400000510042DF5C1
:00000001FF
