:020000041004E6
:100000000000012061330410B52F0410BD2F04102F
:1000100000000000000000000000000000000000E0
:10002000000000000000000000000000C52F0410C8
:100030000000000000000000CF2F0410D92F041092
:10004000C5330410C5330410C5330410C533041080
:10005000C5330410C5330410C5330410C533041070
:10006000C5330410C5330410C5330410C533041060
:10007000C5330410C533041000000000C53304105C
:10008000C5330410C5330410113004100000000003
:10009000033004100000000000000000E72F0410EF
:1000A000F52F04101F3004100000000000000000B5
:1000B0000000000000000000000000000000000040
:1000C00010B5904216D98AB2030C090C0C4659435C
:1000D00080B25343444350431B191A041B0C10189D
:1000E000594180225203002312184B41520DD8026D
:1000F000104310BD4843802252031218520D10467F
:1001000010BDC0460023C25C0133002AFBD1581E3B
:1001100070470000002243088B4274D303098B42CE
:100120005FD3030A8B4244D3030B8B4228D3030CC7
:100130008B420DD3FF22090212BA030C8B4202D369
:100140001212090265D0030B8B4219D300E0090A91
:10015000C30B8B4201D3CB03C01A5241830B8B429A
:1001600001D38B03C01A5241430B8B4201D34B0383
:10017000C01A5241030B8B4201D30B03C01A5241E8
:10018000C30A8B4201D3CB02C01A5241830A8B426D
:1001900001D38B02C01A5241430A8B4201D34B0256
:1001A000C01A5241030A8B4201D30B02C01A5241BA
:1001B000CDD2C3098B4201D3CB01C01A524183096E
:1001C0008B4201D38B01C01A524143098B4201D3A8
:1001D0004B01C01A524103098B4201D30B01C01AD3
:1001E0005241C3088B4201D3CB00C01A524183084D
:1001F0008B4201D38B00C01A524143088B4201D37A
:100200004B00C01A5241411A00D2014652411046D9
:100210007047FFE701B5002000F0F0F802BDC046CE
:100220000029F7D076E7704703460B437FD40022BE
:1002300043088B4274D303098B425FD3030A8B427A
:1002400044D3030B8B4228D3030C8B420DD3FF22E4
:10025000090212BA030C8B4202D31212090265D0B2
:10026000030B8B4219D300E0090AC30B8B4201D365
:10027000CB03C01A5241830B8B4201D38B03C01AAC
:100280005241430B8B4201D34B03C01A5241030B23
:100290008B4201D30B03C01A5241C30A8B4201D3D4
:1002A000CB02C01A5241830A8B4201D38B02C01A7F
:1002B0005241430A8B4201D34B02C01A5241030AF6
:1002C0008B4201D30B02C01A5241CDD2C3098B42DB
:1002D00001D3CB01C01A524183098B4201D38B0158
:1002E000C01A524143098B4201D34B01C01A5241FB
:1002F00003098B4201D30B01C01A5241C3088B4240
:1003000001D3CB00C01A524183088B4201D38B002A
:10031000C01A524143088B4201D34B00C01A5241CC
:10032000411A00D201465241104670475DE0CA0FA3
:1003300000D04942031000D34042534000229C4663
:1003400003098B422DD3030A8B4212D3FC2289016D
:1003500012BA030A8B420CD3890192118B4208D343
:10036000890192118B4204D389013AD0921100E0A5
:100370008909C3098B4201D3CB01C01A52418309B9
:100380008B4201D38B01C01A524143098B4201D3E6
:100390004B01C01A524103098B4201D30B01C01A11
:1003A0005241C3088B4201D3CB00C01A524183088B
:1003B0008B4201D38B00C01A5241D9D243088B42E1
:1003C00001D34B00C01A5241411A00D20146634684
:1003D00052415B10104601D34042002B00D54942E8
:1003E000704763465B1000D3404201B5002000F027
:1003F00005F802BD0029F8D016E770477047C046DF
:10040000002B11D1002A0FD1002900D1002802D0E1
:100410000021C943080007B4024802A14018029015
:1004200003BDC046D9FFFFFF03B4684601B502987B
:1004300000F0A2F8019B9E4602B00CBC7047C0467B
:10044000F0B5CE469946030C9C46130447461B0C58
:100450001D000E0061460404240C80B50700100C3A
:100460004B436543414360432C0CC01824188C4611
:10047000A34203D980235B029846C444494679438A
:100480005643230C2D042D0C891963442404601950
:10049000C918C0BCB946B046F0BDC04670B5002210
:1004A0000C4B04000D0001F0D7FE002804D1200001
:1004B000290001F00FFE70BD064B0022200029002C
:1004C00001F06CFA01F006FE80231B069C46604496
:1004D000F1E7C0460000E04170B5002200230400AF
:1004E0000D0001F09BFE002808D12000290000F03B
:1004F0000FF802000B001000190070BD80231B06CE
:10050000E918200000F004F8002342428B41F2E792
:1005100070B500220B4B0D00040000F077FFFFF7D1
:10052000BDFF060001F040FE0022074B00F06EFF09
:1005300002000B002000290001F030FAFFF7AEFFA7
:10054000310070BD0000F03D0000F04170B50600C4
:10055000080001F0FBFD0022064B00F057FF0D00E4
:100560000400300001F020FE2B00220000F0D0F843
:1005700070BDC0460000F041F0B557464E464546B6
:10058000DE46E0B504000D009246994683B08B42EA
:1005900030D82DD04946504601F086FE290006008D
:1005A000200001F081FE331A9846203B34D49B464C
:1005B00053465A46934042461F00534693401E00FE
:1005C000AF423BD8AF4200D179E05B46A41BBD41AE
:1005D000002B00DA76E00022002300920193012331
:1005E0005A4693400193012342469340009329E0E9
:1005F0008242CFD900220023009201930C9B002B52
:1006000001D01C605D600098019903B0F0BCBB464E
:10061000B246A946A046F0BD42469B4620239B1AFF
:100620005246DA40414613004A468A401700424685
:100630001F43534693401E00AF42C3D900220023FC
:10064000009201934346002BD8D0FB0772081A434F
:1006500046467B080EE0AB4201D1A2420CD8A41A58
:100660009D41012024196D410021013E24184D4176
:10067000002E06D0AB42EED9013E24196D41002E6A
:10068000F8D1009801995B4600196941002B24DBE1
:100690002B005A464446D3402A00E2401C005B46E9
:1006A0001500002B2ADB26009E403300260047461B
:1006B000BE403200801A9941009001919EE7A3420A
:1006C000BCD882E74246202300219B1A00220091D9
:1006D00001920122DA40019285E7424620239B1ACB
:1006E0002A0046469A402300F340444613432A001A
:1006F000E2401C005B461500002BD4DA42462F0076
:100700002023260097409B1ADE403B003343CDE771
:10071000F0B557464E464546DE46E0B583B00090FC
:1007200001910C034F00CE0F610A009C1D03640F62
:100730000C43009900920193C80059004B0D994653
:10074000009A019B6D0AD90F530F2B439A46009BC9
:100750007F0DDA0094464A46B046BA1A8E4200D15E
:10076000B0E0002A00DC78E04946002900D1E9E049
:10077000C9498F4200D195E10125382A16DC802134
:10078000534609040B439A461F2A00DDE7E1202166
:1007900055468B1A61469D40D1400D4361469940B4
:1007A0004B1E99415346D3400D43E41A451BA842C2
:1007B00080414042241A230200D40FE16402640AFB
:1007C000002C00D139E1200001F050FD0300083B6E
:1007D00020212800CA1AD0409C4002009D4022439C
:1007E0009F4200DD73E1D81B0130091A2C008D40B7
:1007F000C4406B1E9D411300C2408B40254300271F
:1008000014001D436B0709D00F232B40042B05D088
:100810002B1DAB42AD416D4264191D00230200D473
:100820002DE19D4A0137974200D1D3E046469B49CE
:10083000ED0821404A072A437C054D022D0B640D2B
:1008400024052C43F60734431000210003B0F0BC0C
:10085000BB46B246A946A046F0BD002A00D184E0BE
:100860004A46D21B002F00D06DE12500054300D180
:1008700027E1561E012A00D13BE2874DAA4200D152
:100880006AE20125382E12DC32001F2A00DDF8E171
:1008900020262500B61A07005346B040D440B54084
:1008A000D740461EB0411B1B9A463D430543624656
:1008B000551BAC459241534652420E004F46884666
:1008C0009C1A78E7002A00DC8EE04946002975D1A1
:1008D00061465346194300D1F6E0511E012A00D16A
:1008E00091E16D4DAA4200D1DCE00125382914DCEC
:1008F0000A001F2A00DDA2E120215346891A8B40FD
:100900001D006346D3401D4363468B4019004B1EB8
:1009100099415346D3400D43E4182D188542804138
:1009200040422418230259D55B4B01379F4251D0D6
:1009300001215A4B6A081C4029400A43E507154328
:1009400064085FE761465346194300D1BCE0511E7D
:10095000012A00D164E1504DAA4200D16AE101258B
:10096000382900DD22E70A000EE74D4A7D1C1542BA
:1009700000D0D0E025006246534605431A43002FBD
:1009800000D037E1002D00D1A8E1002A00D16AE1B2
:100990006346C51A5346E21AA8429B415B42D31AEA
:1009A0001A0200D403E263461D1AAC459241534635
:1009B00052421C1B0E008846A41A23E736498F4278
:1009C00070D00125382AA8DC8021534609040B4346
:1009D0009A468EE73C000025002231E707232B4092
:1009E000002B00D010E793E0002A74D04A46D21BB7
:1009F000002F00D1C7E02849894500D185E10125B4
:100A0000382A12DC802109040C431F2A00DDABE1E7
:100A100020212500891A070088408D40D740411EBB
:100A20008841D4403D430543A24465446545924115
:100A30005242524414004F4674E7280001F016FC5D
:100A4000030018331F2B00DCC2E62A00083882405E
:100A50009F4200DDA9E0DB1B581C1F2800DCACE135
:100A600015001F3BDD40202805D040231B1A9A406B
:100A7000531E9A411543072300272B40B0E7ED088A
:100A8000054B62072A43E4089F420FD02403250B3D
:100A90007C05640DD4E6C046FF070000FFFF7FFF22
:100AA000FE070000C00862070243E4081300234366
:100AB00000D186E180252D0325432D03C34C2D0B4A
:100AC000BEE6604654460E001700C508D8E7C04C85
:100AD000FF1A144096E6BF4A791C11426BD12200DE
:100AE0000243002F00D0DBE0002A00D12DE1624656
:100AF00053461A4300D1B6E06346C518854280418B
:100B0000544440422418230202D50F00B04B1C402D
:100B10003A002800D8E76246851AA8429241534617
:100B200052429146E31A1A004B46D21A13009146DC
:100B30001A0254D44A464C462A4300D040E60026C6
:100B4000002400257CE6A14DA94500D190E00125B7
:100B5000382A00DDABE680252D042C4395E61100F4
:100B600055462039CD40A946202A06D0402153467B
:100B70008A1A934062461A43944665466B1E9D410D
:100B80004B461D4312E62100014300D1C4E0511E33
:100B9000012A00D1FBE08D4DAA4200D1B5E001252C
:100BA000382900DD41E70A002FE7894CFF1A14407D
:100BB0006207E4086AE7854A914200D1E3E06346B0
:100BC000C218824280412300404253441B18DD0773
:100BD0005C080723520815430F002B4000E76346CB
:100BE0001D1AAC459241534652421C1B0E008846CA
:100BF000A41AE5E5002D00D091E0002A38D1802428
:100C00000026240356E76346C518854280415444B4
:100C1000404224180127230200D4DFE6022787E69A
:100C20006346C51AA842804153464042E41A012750
:100C3000241AC0E56207C0080243E40836E7110041
:100C400053462039CB409946202A06D040215346AE
:100C50008A1A934062461A43944665466B1E9D412C
:100C60004B461D4359E66207C0080243E4080DE7FE
:100C700053465A076346D80853460E000243DC0821
:100C800014E715002600203DEE40202A03D0402521
:100C9000AA1A94402043421E90410500354306E6BF
:100CA000002A7CD062465346C0081A4300D1FAE6B7
:100CB000620710438022E4081203144208D0D908C6
:100CC000114205D16346D80853460C005B07184310
:100CD000420FC000C00852070243E7E6002A00D1D5
:100CE0002DE76346D80853465A070E000243DC0836
:100CF000CCE663461D1AAC459241534652421C1B3A
:100D00000E008846A41A013755E56346D9085346B4
:100D10005A070A43DC08C9E660465446D4E6C008D0
:100D2000002A00D1BFE6620710438022E4081203C4
:100D30001442CDD0DD081542CAD16346D8085346C7
:100D40005B070E002C001843C2E76346D9085346E0
:100D50005A070A43DC0899E66346D80853465A07FF
:100D60000E000243DC08A1E6110027002039CF4025
:100D7000202A03D040218A1A94402043421E9041E9
:100D800005003D4351E60C000025002258E5604473
:100D900060459241544452420500A4183AE7534634
:100DA0005A076346D90853460A43DC087EE61A0010
:100DB0001C002A4300D0ABE6C1E620210025091A19
:100DC00019E500220025014C3AE5C046FF07000066
:100DD000FFFF7FFFFE070000F0B5DE4645465746A1
:100DE0004E46E0B587B0009201930B031B0B9B4668
:100DF000CA0F4B00040080465B0D029200D16AE1ED
:100E0000D44A934200D18CE15946420FC9000A43AB
:100E1000802109041143C2009046CF4A8946924678
:100E20009A44002300240393009E019F3B031B0B65
:100E30009B467B0030005B0DFD0F002B00D128E1AD
:100E4000C44A934200D177E15946720FC9000A4360
:100E50008021090411438B46BF49F2008C4651465C
:100E60006344CB1A9A460023029E6E400F2C27D86B
:100E7000BA49A40009598F46CB464246029E039BBD
:100E8000022B16D0032B00D1A6E2012B00D0DFE00D
:100E900000220023002490461B052343F60733431A
:100EA0004046190007B0F0BCBB46B246A946A04672
:100EB000F0BD002200249046A64BEDE72E00DFE7B0
:100EC000CB4500D2D4E100D1CFE101235B429C4667
:100ED000444648460027E2445B46150E1B021D436C
:100EE000190C2B04120200951D0C914602910395DA
:100EF000FFF796F902006A430B04210C8046194360
:100F00008A4209D9009D0123AC465B4261449C465C
:100F1000E0448D4200D8FBE1881A0299FFF780F97E
:100F2000039A240442430904240C03000C43A24204
:100F300006D90099013B8C466444A14200D8E1E106
:100F4000A01A424612041A4393464B4659461B0CBC
:100F50001D0004930B0449460904090C0C001B0CEA
:100F60005C43120C6B43884651436A43250CAC46E4
:100F70005B186344994203D9802149028C4662443C
:100F8000190C24041B04240C8A181C19904202D347
:100F900016D1A74214D25B46009D013B4F440593F6
:100FA0004F459B41AC465B426344C018854200D329
:100FB000A1E1824200D9F6E100D1F1E1059B9B4617
:100FC0003C1BA742BF41009D801A7F42C01B854247
:100FD00000D1D0E10299FFF723F9039A0B044243B1
:100FE000210C070019438A4200D978E1881A029936
:100FF000FFF716F9039A240442430904240C030062
:101000000C43A24200D95DE14146A41A3A041A43B6
:10101000049D13041B0C594347466B439C46100C1C
:1010200047430B0CBC44634468439F4203D980256B
:101030006D02AC4660441F0C09041B04090C3F18E8
:101040005B18BC4200D202E100D1FDE001231A434B
:10105000434B5344002B00DCAEE0510700D098E135
:101060005946C90106D559463E4B194080238B4647
:10107000DB0053443C498B4200DD1AE75946D20855
:10108000490711435A465B0554028846240B5B0D01
:1010900002E75A46009B1A4300D17EE05B46002BD4
:1010A00000D100E1584601F0E1F8020003000B3ADC
:1010B0001D27009EBA1A19005846D64008398840A4
:1010C000320002439346009A8A40284953448A4694
:1010D0009A440023C8E65B460343994656D05B46D4
:1010E000002B00D1CDE0584601F0C0F80B235B4245
:1010F0009C460200844466461D239B1B260011006B
:101100005846DE400839884033000343994623009F
:101110008B409846164B00249B1A9A460023039353
:1011200082E65A46024391462AD100229A46022379
:1011300090460824039377E65A46009B1A430D4BCA
:101140009C46E244002A17D102231C4300239B46FD
:10115000023389E6FF07000001FCFFFF64930410DF
:10116000FF030000FFFFFFFEFE070000F303000087
:101170000DFCFFFF01F8FFFF032332001C4373E661
:101180009A460323D9460C2403934DE60023984640
:101190009A4601330424039346E601231C430023AB
:1011A0009B46013360E60023802498460026924B3C
:1011B000240371E6012252420121C91A382900DDB7
:1011C00066E61F2900DCABE01F204042C31A5846E8
:1011D000D8400300202904D058468849514488400B
:1011E0000243511E8A411A4307231900002411406B
:1011F00013420CD00F231340042B00D1F9E0111D32
:1012000091429B410A005B4259075B021C0BD208CA
:101210000A43904600233FE680244B4624032342A2
:1012200009D05B46234206D11C4324032E0090467E
:10123000714B240B30E680244B4624031C432403CB
:10124000029E6D4B240B27E6002B00D100E700988F
:10125000511E84466444844200D284E0BC4200D2E1
:10126000AEE000D1C1E00A00F0E6424500D92CE62C
:101270004B46DC07580843465B081C434346DF07E0
:101280002AE600F0F3FF15239C46844402006346DF
:1012900020321C2B00DC2EE72300083883409946BF
:1012A0000023984636E700F0E1FF02000300153204
:1012B00020331C2A00DCFBE600990838814000221C
:1012C0008B4602E70099013B8C466444A14200D959
:1012D0009AE6A24200D897E6831E644494E6AC46A0
:1012E0006144013F8D4200D980E68A4200D87DE604
:1012F000871E61447AE6854200D05FE6B94500D991
:101300005CE656E6A24200D81AE6831E644417E65D
:101310008A4200D800E6AC46831E98466144FBE54D
:1013200037481400504482405B4617008340CC404D
:101330007A1E974123433B431A005B46CB4051073B
:1013400009D00F211140042905D0111D914292416D
:1013500052429B180A00190200D455E700220123CB
:101360000024904698E50A00BC4200D06EE64B454A
:1013700000D06BE66CE6234B234A5344924500DAD7
:1013800018E7012149420A1D8A42894149428B449A
:1013900066E60F211140042900D161E61100F2E751
:1013A000BC4200D80AE602235B429C4600994F44A7
:1013B0004F459B41E3448C465B426344C018FFE5C4
:1013C0004946009D480048458941AC464942614430
:1013D0008146023A6418C7E780245B4624031C4315
:1013E00024039046044B240B56E59945E8D30A00A4
:1013F000BDE7002308E7C046FF0700003E040000E9
:101400001E040000FF03000002FCFFFFF0B557467A
:10141000DE464E464546E0B51F000B031B0B16008B
:101420009A46CA0F4B000400934687B05B0D00D16B
:10143000D5E0BB4A934200D1F8E05146420FC900C3
:101440000A43802109041143C2009146B54A8A46E5
:101450009D180023984602933C037B00FA0F30004E
:10146000240B5B0D009200D196E0AD4A934231D03F
:10147000720FE4002243802424041443A94AF0009C
:10148000944663445B195A1C0192424600260A2A7C
:1014900042DC5A4600994A4093464246022A32DCD0
:1014A000013A012A00D949E1022E00D1CAE0012EF9
:1014B0003DD100230024002210005A461B0523437F
:1014C000D2071343190007B0F0BCBB46B246A94689
:1014D000A046F0BD924B2643EB18002E00D1BBE096
:1014E0000322414611435A46884600994A408021CA
:1014F00009018C4629006144019141460A2900DD19
:1015000033E293460326424601279740A6213A003C
:10151000C9000A400F4231D0029E022E00D135E2AE
:10152000032E00D1D2E154464846012EC1D0019A83
:101530007D4B94466344002B00DCC0E0420709D099
:101540000F220240042A05D0021D824280414042FF
:1015500024181000E20106D5744B019A1C40802328
:101560009446DB006344724A93426BDC6207C00816
:1015700064025B050243240B5B0D9DE7902189000B
:101580000F4263D188223A4200D1D7E0009BA246A5
:101590009B4681460296BFE72300334300D17FE09C
:1015A000002C00D1ADE1200000F060FE020003003D
:1015B0000B3A1D201900821A30000839D0408C40A7
:1015C0000443300088405B4AEB1A944663445A1C3B
:1015D0000192424600260A2A00DC5AE79CE753465D
:1015E0000343994654D05346002B00D177E150462F
:1015F00000F03CFE0B235B429C4602008444110039
:101600005046083988401D23804660461B1A20003A
:10161000D8400300404603439A4623008B40994636
:101620000023444D9846AD1A029315E752460243F3
:10163000914626D100221D00022392460832904690
:10164000029309E700240022354B35E7002380246C
:101650009B462403324B2FE702224146114380224E
:10166000120194462A006244884601920A2900DD4C
:1016700052E75A460020009904004A409346022649
:101680000BE70C221D000323814690460293E3E6FC
:1016900000239A4604339846033B00250293DBE679
:1016A000424601331A432B0090465A1C019242468F
:1016B0000024002001260A2A00DCEAE62CE70122A9
:1016C000D21A382A00DDF4E61F2A00DC2AE11F21A5
:1016D0004942CB1A2100D9400B00202A05D0164AD6
:1016E000019D94466544AC402043421E90411843FE
:1016F000072319000024014003420CD00F230340AC
:10170000042B00D140E1031D8342A4411800644230
:1017100061076402240BC20800230A43CCE6C046DA
:10172000FF07000001FCFFFFFF030000FFFFFFFEBB
:10173000FE0700000DFCFFFF3E04000049464A463C
:101740000904090C0D00160C020C0004000C4543A2
:10175000AC4605007543A84615000F00754300927E
:1017600002952A00009D6F4365462D0CA94647440B
:101770004F44B84505D91500802252029046454491
:1017800002953D0C039565462D043F042D0CAC4697
:101790003D0065440495250C2404240CAC4625002A
:1017A0007543A84665460F0069434144894667432F
:1017B000390C49446E43884503D980225202904631
:1017C00046440D0CA846350045440595039D3F044D
:1017D000A8463F0C0904C919884445460395554657
:1017E0002E04360C2F0C35004543784381463800D3
:1017F000A8462D0CAA46009A504372434A445244CC
:10180000914503D980256D02A9464844150CA94687
:1018100045462D042D0CA84665467D4312044844D8
:101820009044A9463200654662436E437C43170CE0
:101830003619BF19BC4203D980246402A446E1448E
:10184000029C039EA446059D66448E428941AC4697
:1018500012043C04120CA218624449425418464433
:10186000A4464645A44182466442A046AA4292410B
:101870008C458941E244D044494252420A43A04542
:10188000A44182458941644249420C4341463F0C90
:10189000D2191219CC0D049970020843411E8841D7
:1018A00041464A44F60D520230434902144308436C
:1018B000D20135D50122430802401343E007184303
:1018C000640834E6009BA2469B468146802453462A
:1018D00024031C4324034A462E4B240BECE500F062
:1018E000C5FC15239C4684440200634620321C2B11
:1018F00000DC84E6002399462300083883409A469A
:101900008EE600F0B3FC02000300153220331C2ADF
:1019100000DC4EE602003400083A0020944052E613
:10192000019304E61C4B21009C460300019DD3401B
:101930006544A94019430300AB40581E8341194335
:101940000800D4404B0709D00F230B40042B05D0CF
:101950000B1D8B428041404224181800230200D402
:10196000D6E6012300240022A6E50F29AAD1802370
:1019700052461B031A42A9D01C42A7D11C43009B0C
:1019800002009B46034B97E50024C1E60024014B6F
:10199000220091E5FF0700001E040000F0B54E464E
:1019A0004546DE465746E0B585B0009001910C03F0
:1019B0004F00CE0F610A009CB046640F0C430099A3
:1019C0007F0DC80011001A001B039C460091019274
:1019D00051004B0D9946019B009DD90F63466A0F3C
:1019E0005B0A1343EA0094469346C14A039002936C
:1019F000914500D1CDE0012569404D467D1BAA46A9
:101A00008E4200D180E0002D00DC35E349460029FC
:101A100000D1DFE0974200D194E152460125382AF7
:101A200019DC8022029B12041343029352461F2AA0
:101A300000DDE3E1534620226146029DD21A954023
:101A4000D9400D43614691400A00511E8A41154319
:101A5000029ADA40A41A451BA84280414042241A47
:101A6000230200D43DE16402640A002C00D147E166
:101A7000200000F0FBFB0300083B20212800CA1ACD
:101A8000D0409C4002009D4022439F4200DD77E110
:101A9000D81B0130091A2C008D40C4406B1E9D419B
:101AA0001300C2408B402543002714001D436B07E1
:101AB00009D00F232B40042B05D02B1DAB42AD4189
:101AC0006D4264191D00230200D440E1884A0137A9
:101AD000974200D101E1012643468649ED082140A5
:101AE0004A072A437C054D022D0B640D1E40240538
:101AF0002C43F60734431000210005B0F0BCBB4670
:101B0000B246A946A046F0BD002D00DCD0E2494611
:101B1000002900D0D4E06146029B194300D12BE19B
:101B2000691E012D00D1D9E1954200D10AE10125BC
:101B3000382917DC8A4653461F2B00DDE7E12022B7
:101B4000D21A029B614693401D005346D94063461A
:101B500093401A000D43511E8A4153461543029A81
:101B6000DA40A4182D1885428041404224182302EF
:101B700000D4B6E05E4B01379F4200D1ADE00121B9
:101B80005C4B6A081C4029400A43E507154364087A
:101B90008DE7594A029B92466246BA441A432CD0BA
:101BA0008E422ED05246002A60D0002F00D1DBE0BA
:101BB00063460E00029CD80862070243E408130043
:101BC000234300D154E280252D0325432D03484CA7
:101BD0002D0B8CE76146029B194300D1CCE0290014
:101BE0000139012D00D188E1954200D1AAE00125FB
:101BF000382900DD2FE78A4618E7012251408E423E
:101C0000D0D15346002B00D1BEE0002F00D038E1E8
:101C1000CA462200024300D1E2E15346591E012B7D
:101C200000D10DE2324A924500D1D2E10127382994
:101C300013DC1F2900DDEEE12022029B521A250051
:101C400007009A46CC4090409540CF40A244421EA7
:101C5000904153462F43074302933D006544654539
:101C60009241029B52424F46D41880E7234A7D1C82
:101C7000154200D0AAE062462500029B05431A43A4
:101C8000002F00D0F5E0002D00D16BE1002A00D13B
:101C900052E16346C51A029BE21AA8429B415B428D
:101CA000D31A1A0200D4D5E163461D1AAC459241FD
:101CB0000126029B52421C1B8846A41A0E40F6E6DF
:101CC00097423FD052460125382A00DD4AE780225C
:101CD000029B1204134302932DE73C0000250022CF
:101CE00005E707232B40002B00D0E2E66BE0C0465F
:101CF000FF070000FFFF7FFF01F8FFFFFE07000066
:101D0000280000F0B3FA030018331F2B00DCB4E600
:101D10002A00083882409F4200DDB9E0DB1B581CD6
:101D20001F2800DCA0E115001F3BDD40202805D066
:101D300040231B1A9A40531E9A411543072300273C
:101D40002B40D0E7C00862070243E40837E7EA08FF
:101D500063071A43D34BE4089F4200D12FE72403C3
:101D6000250B7C05640DC2E6CA462200024358D109
:101D700063460E00029C0393039B5746DA08E7E78D
:101D8000C94CFF1A144092E6C84D7A1C2A4200D072
:101D900084E022000243002F00D0EFE0002A00D1AF
:101DA000E5E0624602990A4300D1C5E06346C518E2
:101DB0008C4685428041644440422418230202D567
:101DC000B94B01371C40BA460395D5E76246851AE0
:101DD000A842924152429146029BE31A1A004B4696
:101DE000D21A130091461A026CD44A464C462A4332
:101DF00000D03AE600260024002578E602995346F2
:101E00000D00203AD540202B06D04022D21A0B00DC
:101E1000934062461A4393465B465A1E93411D43C4
:101E200019E653465A1E012B00D1C6E09D4EB2451D
:101E300000D1BDE688460E000125382A10DC1F2A95
:101E40007FDC20212500891A070088408D40D7407B
:101E5000D440411E8841029B3D431B1B0543029316
:101E60006246551BAC459241029B52424F469C1A1A
:101E7000F6E5002D00D0B7E0002A00D1F0E0012601
:101E80000E4063460298D90842070A43C40896E602
:101E9000854CFF1A14406207E40860E781498A42D2
:101EA00000D1C9E06346C11881428041029B404293
:101EB000E3181B18DD075C08072349080D431700CA
:101EC0002B4010E763461D1AAC4592410126029B48
:101ED00052421C1B8846A41A0E40C6E56346C5182C
:101EE000029B854280419C4640426444241801275D
:101EF000230200D4F5E6022741E66346C51AA8424C
:101F00008041029B4042E41A0127241AA8E5029D61
:101F100052462B00203AD34019005346202B06D0BE
:101F20004022D21A2B00934062461A4393465D46E4
:101F30006B1E9D410D4315E66207C0080243E4088D
:101F40000DE7110027002039CF40202A05D040217D
:101F50008A1A9440250005430395039D6A1E954106
:101F60003D437DE7002A00D144E701260E40634649
:101F7000D908029B5A070A43DC08F0E6002A28D059
:101F80006246029FC0083A4300D1DCE66207104374
:101F90008022E4081203144209D0FD08154206D13C
:101FA000634601262C00D8087B0718430E40420FD9
:101FB000C000C0085207024301E663461D1AAC4543
:101FC0009241029B52421C1B0E0088460127A41A14
:101FD00046E56346D908029B5A070A43DC08EEE54A
:101FE0006346029C0393C7E6C008002A00D1AAE614
:101FF000620710438022E40812031442D7D0029FE4
:10200000FD081542D3D163460126D8087B072C0072
:1020100018430E40CBE70A002700203AD74020297A
:1020200005D04022521A9440250005430395039D94
:102030006A1E95412F4310E614000025002256E544
:10204000029B60449946604592414C4452420500CF
:10205000A4184CE71A001C002A4300D0B3E6C9E6D6
:10206000802400262403AEE520210025091A17E567
:10207000002200250B4C3AE5002D00D1F6E54B4639
:10208000DA1B9246002F00D16FE6382A05DC802645
:102090003604344388460E00D1E688460E000125FA
:1020A000DEE6C046FF070000FFFF7FFFFE070000DF
:1020B000002D00D168E64B46D91B002F01D18A467E
:1020C000A7E50127382900DDC7E580221204144363
:1020D000AFE5C0460B00020070B5164D0C0382B090
:1020E0004900002000920193240B490DDE0FA94204
:1020F00004DD1148814203DD104BF01802B070BDC1
:102100008020400320430E4C641A1F2C08DD0D4B29
:102110005B1AD84003005842002EEFD11800EDE7BB
:10212000094B009A9C46030061448B40E2401343F4
:10213000F1E7C046FE0300001D040000FFFFFF7F23
:102140003304000013040000EDFBFFFF70B500280E
:1021500016D0C317C5185D40C40F280000F086F8DC
:10216000104B1B1A5B055B0D0A2814DC02002E00C5
:10217000153296400B22121AD5402D032D0B03E089
:1021800000240023002500261B052B43E4072343DE
:102190003000190070BD0B3885402D0300262D0B33
:1021A000F2E7C0461E04000010B5041E10D000F077
:1021B0005DF80E4B1B1A5B055B0D0A280FDC0B222A
:1021C0002100121AD14015300A038440120B01E09D
:1021D000002300221B0513432000190010BD22001C
:1021E0000B38824012030024120BF3E71E04000098
:1021F0008446100062468C461900634600E0C046E3
:102200001FB500F015F9002801D40021C8421FBDF8
:1022100010B500F055F84042013010BD10B500F087
:1022200007F9002801DB002010BD012010BDC046C9
:1022300010B500F0FDF8002801DD002010BD0120E0
:1022400010BDC04610B500F07FF8002801DC00206A
:1022500010BD012010BDC04610B500F075F8002873
:1022600001DA002010BD012010BDC0461C21012351
:102270001B04984201D3000C10391B0A984201D369
:10228000000A08391B09984201D30009043902A247
:10229000105C40187047C0460403020201010101AE
:1022A000000000000000000010B5002903D1FFF776
:1022B000DDFF203002E00800FFF7D8FF10BDC04668
:1022C000F0B55746DE464E464546E0B50D000400E3
:1022D000E80F83460903D80F090B824619488C463C
:1022E0001F0369005E00490D3F0B760D814218D037
:1022F00086420FD00120B1420DD1BC450BD1944292
:1023000009D1D3451CD0002905D160462043431E86
:10231000984100E00120F0BCBB46B246A946A04669
:10232000F0BD01208E42F6D1614639430F001743BC
:102330002743F0D15B465246981A431E9841EAE77C
:102340000020E8E7FF070000F0B557464E46454637
:10235000DE46E0B50D000F03390B83B00400804664
:1023600001915800E90F314F400D8C466E00190362
:1023700082469146760D090BD80FBE421FD0BA4552
:102380000FD0002E2FD15546019E3443002D27D16A
:102390000A433AD0002C45D100281AD101204042EE
:1023A00017E011433BD1002E02D1019F2743F3D008
:1023B000844509D16346002BF0D0604609E0019FB7
:1023C00027432CD1B24524D063460220013B18405C
:1023D000013803B0F0BCBB46B246A946A046F0BDEA
:1023E000002CD9D0E4E75446002CEDD08445EBD145
:1023F0005645E9DCDEDB019B8B42E5D8DAD1C845E6
:10240000E2D80020C845E4D2D4E70020002CE0D078
:10241000DAE7114303D18445D6D10020D9E7022061
:102420004042D6E78445E6D0CEE7C046FF0700002D
:10243000F0B557464E464546DE46E0B50D000F0363
:1024400004008046E80F390B844683B05800304FB3
:10245000400D01911E03690082469146490D360BDD
:10246000D80FB94220D0BA450FD000292BD10199FD
:102470000C435146002937D1324338D0002C44D187
:10248000002819D10120404216E0164313D100293B
:1024900002D1019F2743F3D0844520D06346022018
:1024A000013B1840013807E0019F274303D18A45CB
:1024B000F4D116431FD0022003B0F0BCBB46B24695
:1024C000A946A046F0BD5446002CE7D08445E5D18E
:1024D0005145E3DC03DB019BB342DFD80FD06346F9
:1024E000002BCFD06046E7E7002CC9D0D4E700200E
:1024F000002CE1D0D2E78445D0D10020DCE7C845EC
:10250000CCD80020C845D7D2E9E78445E3D0C5E759
:10251000FF07000080B582B000AF786039607B684B
:1025200004331A683B68D9437B6804330A401A6055
:102530007B6819687B683A680A431A60C046BD46E2
:1025400002B080BD80B582B000AF7860084B1A6AD7
:102550007B68D943064B0A401A62054B5A6A7B686E
:10256000D943034B0A405A62C046BD4602B080BD03
:102570000000504880B582B000AF7860084B9A6A7E
:102580007B68D943064B0A409A62054BDA6A7B683E
:10259000D943034B0A40DA62C046BD4602B080BD53
:1025A0000000504880B582B000AF78607B681B693E
:1025B0001800BD4602B080BD80B584B000AF786021
:1025C000074B196D064B7A680A431A65044B1B6D5D
:1025D0007A681340FB60FB68C046BD4604B080BD0E
:1025E0000000404880B584B000AF7860074B196E9A
:1025F000064B7A680A431A66044B1B6E7A681340CE
:10260000FB60FB68C046BD4604B080BD000040488A
:1026100080B582B000AF7860064B1B6E7A681340BD
:102620007A689A4201D1012300E000231800BD46D8
:1026300002B080BD0000404880B582B000AF786035
:10264000044B196C034B7A680A431A64C046BD46B2
:1026500002B080BD0000404880B582B000AF786015
:10266000054B1A6C7B68D943034B0A401A64C04679
:10267000BD4602B080BDC04600004048F0B58DB0F8
:1026800004AF01F097FF00F0E3F800F018F900F054
:1026900003FA00F075F900F0B1F900F02DF900F03F
:1026A0003BF95D4B180000F051FF1623FE185B4A02
:1026B000594B1100180001F0A9F8030033701623DC
:1026C000FB181B78002B06D0554B0822DA61544BBF
:1026D000180005F0C3FF534B1A685B68BA61FB61D1
:1026E0001723FB1802221A704F4B1D221A704E4BF3
:1026F00008225A701722BB181B78BA18591C11707F
:102700001900BA69FB69131CDAB2474B5A54FB69CA
:102710001B06BA69140A1C43FB691D0ABC61FD61F2
:10272000BB69FA691343E5D1404B180003F02CFC58
:10273000182003F0FFFB3E4B18783B4C3D4ABE236C
:1027400059003D4B0293FF2301933C4B0093230020
:1027500003F028FC04F000F8394B1B78012B47D11B
:10276000334B1A782C4B1100180001F027FB0200A4
:102770000B00BA60FB60FC1DB868F968FDF78EFEBF
:1027800003002370FB1D1B781800FFF7DFFC02001D
:102790000B00B868F968FFF701F902000B001000A0
:1027A00019000022274BFEF731FE02000B00BC1D72
:1027B00010001900FDF772FE03002370FB1D1B784B
:1027C000002B03D1BB1D1B78002BC3D0164BAE22B0
:1027D0001A70154B0A225A70134BFA1D12789A720E
:1027E000114BBA1D1278DA72154B00221A70B1E73C
:1027F000154B1B78012BADD10E4B1800FDF782FC59
:1028000003009AB20B491148642306F035F80E4BC9
:1028100000221A709EE7C0463806002050060020AD
:102820007C010020F01E001078020020DF88DF8885
:102830007D0400207C03002011560410A0860100B6
:10284000740200200000594075020020E0010020C1
:1028500090B589B000AF08243B19180018231A005E
:10286000002106F06FFD3B00180008231A0000212C
:1028700006F068FD3B1903221A603B1980225202C0
:102880005A603B191022DA603B19180005F038FC39
:10289000031E01D000F020FA3B0000221A603B002A
:1028A00000225A603B001021180005F079FD031E3C
:1028B00001D000F011FAC046BD4609B090BD80B508
:1028C00086B000AF3B00180018231A00002106F064
:1028D00039FD3B0002221A603B00802252015A61FE
:1028E0003B00180005F07EFE031E01D000F0F4F955
:1028F000C046BD4606B080BD80B582B000AF0023A3
:102900007B60C023DB057B603B1D180002F048FBA9
:10291000C046BD4602B080BD80B582B000AF3B006E
:10292000180008231A00002106F00CFD0120FFF713
:102930006FFE031E08D10120FFF77EFE0120FFF786
:102940008BFE0120FFF74EFEC0460C4B1800FFF730
:1029500029FE03000F2BF8D93B00A02252001A8059
:102960003B0000229A703B0000225A603B00180096
:1029700003F0E2FDC046BD4602B080BD0018006015
:1029800080B500AF1B4B1C4A1A601A4B82225200C2
:102990005A60184B00229A60164BE022D200DA608F
:1029A000144B00221A61134B00225A61114B8022F2
:1029B00092009A610F4B1822DA610E4B00221A62C4
:1029C0000C4B00225A620B4B00229A62094B0722E1
:1029D000DA62084B00221A63064B08225A63054B41
:1029E000180005F03BFE031E01D000F075F9C0464B
:1029F000BD4680BD7C0100200030004180B500AFA5
:102A0000234B244A1A60224BE12252025A60204B87
:102A100000229A601E4B0022DA601D4B00221A61D0
:102A20001B4B0C225A611A4B00229A61184B002250
:102A3000DA61174B00221A62154B00225A62144BBE
:102A400000229A62124B180005F0C0FE031E01D04E
:102A500000F042F90E4B0021180006F085FB031E22
:102A600001D000F039F90A4B0021180006F0BCFB38
:102A7000031E01D000F030F9054B180006F03AFBB8
:102A8000031E01D000F028F9C046BD4680BDC046F7
:102A9000E00100200040004180B586B000AF3B1D42
:102AA000180014231A00002106F04CFC0420FFF744
:102AB00083FD0820FFF780FD9023DB050022102115
:102AC000180002F0A8F88023DB003148002219002A
:102AD00002F0A1F83B1D04221A603B1D02225A603D
:102AE0003B1D01229A603B1D0022DA603B1D05223E
:102AF0001A613A1D9023DB051100180001F0E2FE77
:102B00003B1D10221A603B1D01225A603B1D002212
:102B10009A603B1D0022DA603A1D9023DB0511000C
:102B2000180001F0CFFE3B1D8022D2001A603B1D31
:102B300001225A603B1D00229A603B1D0022DA6090
:102B40003B1D134A1900100001F0BCFE3B1D202262
:102B50001A603B1D8222D2035A603B1D00229A60FC
:102B60003B1D0B4A1900100001F0ACFE094B04217B
:102B70001800FFF7CFFC1020FFF7E4FC8023DB00F8
:102B80001800FFF7F7FCC046BD4606B080BDC04642
:102B9000000010482000504890B587B004AF78601E
:102BA000094B1878094C0A4ABE235900094B029375
:102BB000FF230193084B0093230003F0F3F9C04671
:102BC000BD4603B090BDC0467D04002078020020C1
:102BD0007C03002011560410A086010090B587B038
:102BE00004AF7860094B1878094C0A4ABE23590093
:102BF000094B0293FF230193084B0093230003F03A
:102C0000D1F9C046BD4603B090BDC0467D0400204A
:102C1000780200207C03002011560410A0860100D9
:102C200090B585B004AF094B1878094C094ABE230A
:102C30005900094B0293FF230193084B0093230093
:102C400003F0B0F9C046BD4601B090BD7D04002040
:102C5000780200207C03002011560410A086010099
:102C600090B587B004AF7860144B1B78DD2B03D18F
:102C7000134B01221A700DE0104B1B78D12B09D099
:102C80000E4B1B78FF2B05D10E4B01221A700C4BFB
:102C900000221A700C4B18780C4C084ABE235900BD
:102CA0000B4B0293FF2301930A4B0093230003F085
:102CB00079F9C046BD4603B090BDC0467C030020F4
:102CC00074020020750200207D040020780200209C
:102CD00011560410A086010080B500AF72B6C04640
:102CE000C046FDE780B582B000AF7860084B1A6A35
:102CF0007B68D943064B0A401A62054B5A6A7B68C7
:102D0000D943034B0A405A62C046BD4602B080BD5B
:102D10000000504880B584B000AF7860074B196D53
:102D2000064B7A680A431A65044B1B6D7A68134098
:102D3000FB60FB68C046BD4604B080BD0000404853
:102D400080B584B000AF7860074B596D064B7A6848
:102D50000A435A65044B5B6D7A681340FB60FB685D
:102D6000C046BD4604B080BD0000404880B584B078
:102D700000AF7860074B996D064B7A680A439A65F5
:102D8000044B9B6D7A681340FB60FB68C046BD46F0
:102D900004B080BD0000404880B584B000AF7860CA
:102DA000074B196E064B7A680A431A66044B1B6E72
:102DB0007A681340FB60FB68C046BD4604B080BD26
:102DC0000000404880B582B000AF7860064B1B6EB3
:102DD0007A6813407A689A4201D1012300E0002307
:102DE0001800BD4602B080BD0000404880B582B0EA
:102DF00000AF7860044B196C034B7A680A431A647D
:102E0000C046BD4602B080BD0000404880B582B0DB
:102E100000AF7860054B1A6C7B68D943034B0A40BE
:102E20001A64C046BD4602B080BDC046000040489E
:102E300080B500AF80235B001800FFF781FFC0461C
:102E4000BD4680BD90B589B000AF786008243B19BD
:102E5000180018231A00002106F074FA7B681A681B
:102E6000C023DB059A422BD13B1901221A603B1982
:102E700002221A613B19180005F0B4FB031E01D0B1
:102E8000FFF72AFF0120FFF79DFF031E08D1012055
:102E9000FFF7ACFF0120FFF7B9FF0120FFF77CFF30
:102EA00000220021122001F0DBFC122001F0EDFCD9
:102EB00000220021192001F0D3FC192001F0E5FCCB
:102EC000C046BD4609B090BD90B589B000AF7860EE
:102ED0000C243B19180014231A00002106F032FAC2
:102EE0007B681B68144A934221D180235B01180040
:102EF000FFF73CFF0420FFF70DFF21007B18E022C5
:102F00001A607B1802225A607B1800229A607B1894
:102F10000022DA607B1801221A617A189023DB05FF
:102F20001100180001F0CEFCE020FFF7DBFEC046E8
:102F3000BD4609B090BDC0460030004190B589B093
:102F400000AF78600C243B19180014231A000021EC
:102F500006F0F8F97B681B68154A934224D1802358
:102F6000DB001800FFF702FF0420FFF7D3FE3B1938
:102F7000C02292001A6021007B1802225A607B183E
:102F800000229A607B180022DA607B1800221A6106
:102F90007A189023DB051100180001F093FCC02380
:102FA0009B001800FFF79EFEC046BD4609B090BDCD
:102FB0000040004180B500AFC046FDE780B500AFDE
:102FC000C046FDE780B500AFC046BD4680BD80B5B8
:102FD00000AFC046BD4680BD80B500AF01F04AFBE2
:102FE000C046BD4680BD80B500AF04F08BFEC04634
:102FF000BD4680BD80B500AF04F08DFEC046BD4625
:1030000080BD80B500AF04F08FFEC046BD4680BDD8
:1030100080B500AF03F085F8C046BD4680BD80B5E1
:1030200000AF03F0A5F8C046BD4680BD90B583B0A3
:1030300000AF02003960FB1D1A70FB1D1B787F2B4F
:1030400028D82F4AFB1D1B785BB29B08C0339B001E
:103050009B58FA1D1278110003220A40D200FF216A
:1030600091400A00D2431A4011003B689B01FF22A5
:103070001A40FB1D1B78180003230340DB009A4015
:103080001F48FB1D1B785BB29B080A43C0339B00A3
:103090001A5031E01B4AFB1D1B7819000F230B400F
:1030A000083B9B0806339B00D31804331B68FA1DAA
:1030B0001278110003220A40D200FF2191400A0039
:1030C000D2431A4011003B689B01FF221A40FB1DAE
:1030D0001B78180003230340DB009A400948FB1DBE
:1030E0001B781C000F232340083B9B080A43063330
:1030F0009B00C31804331A60C046BD4603B090BDA0
:1031000000E100E000ED00E080B500AFBFF34F8FBD
:10311000C046044B044ADA60BFF34F8FC046C04636
:10312000FDE7C04600ED00E00400FA0590B587B069
:1031300000AF644A9423D358002B0ED1624B1B6915
:10314000002B03D1604B9B6B002B06D05F4B012201
:103150009A6000F0FFF8FFF7D7FF5D4B5D4A9A6079
:103160005B4B9A68594B1A61574B5A68564B202152
:103170000A435A60544B5A68534B40210A435A60E1
:10318000514B5A68504B80210A435A60C0464E4BFF
:103190005B6904221340042BF9D14B4BDB693022CD
:1031A00093431A00484B20210A43DA61464BDA69FF
:1031B000454B49490A40DA61434BDA69424B802169
:1031C00049000A43DA61454B1B68454A93425BD08C
:1031D0001E233B610823FB600323BB6008237B6045
:1031E000394A9423D3581E2293431A007B685B000C
:1031F0001E210B403449134394228B50324A9423AE
:10320000D35831490122134394228B502D4BDB6854
:10321000344A134019003B691A062A4B0A43DA6004
:10322000284BDA68274B802109040A43DA60264AD2
:103230009423D3582C4A1A40FB689901F0239B0031
:103240000B402149134394228B501F4A9423D35897
:103250001D492022134394228B501B4A9423D35898
:10326000224A1A40BB68D902E0239B010B40164951
:10327000134394228B50144A9423D358124980222A
:10328000D200134394228B501723FB1800221A708C
:103290000DE017243B191B785BB203211800FFF7E0
:1032A000C5FE21007B181A787B1801321A7017238B
:1032B000FB181B781F2BECD962B6C046C046BD4632
:1032C00007B090BD000040480000504804000020B6
:1032D00000ED00E000000410FFFBFFFFF81E0010EF
:1032E000CCECBCFCFFFFFFC03FFCFFFFFFC7FFFFB4
:1032F00080B582B000AF134B9B685B08DAB2FB1D50
:1033000001210A401A700F4B9B685B09DAB2BB1DA2
:1033100007210A401A70FB1D1B78002B07D0BB1D2C
:103320001B78013B084ADA40084B1A6005E0BB1DD8
:103330001B78074ADA40054B1A60C046BD4602B00A
:1033400080BDC046000040480048E8014C0600200F
:103350000090D00380B500AFC046BD4680BD0000E0
:1033600010488546FFF7E2FE002103E00E4B5B5854
:10337000435004310D480E4B42189A42F6D30D4A81
:1033800002E00023136004320B4B9A42F9D30B4A3C
:1033900002E0002313600432094B9A42F9D3FFF78D
:1033A0006DF9FEE700000120D493041038060020D8
:1033B000A40600207C01002038060020C000002068
:1033C0007C010020FEE7000080B584B000AFF8600B
:1033D000B9603B60BB1D1A8072B6C046BB683F2215
:1033E0001340BB60FB685868FB689B89002219008A
:1033F00001F011FCBB1D1A88FF231B02134010D0E3
:10340000BB1D1B881A02BB6813431F4A1343BB60D2
:10341000FB6818680823F9180A23032200F09CFFB0
:103420001CE0BB1D1B88002B10D0BB1D1B881A0283
:10343000BB68134340221343BB60FB681868082332
:10344000F9180A23022200F087FF07E0FB681868DA
:103450000823F9180A23012200F07EFFFB68186890
:10346000BA6939680A2300F0F3FFFB685868FB6803
:103470009B890122190001F0CEFB62B6C046C0460E
:10348000BD4604B080BDC0464080000080B584B019
:1034900000AFF860B9603B60BB1D1A80BB683F227B
:1034A000134080221343BB60FB685868FB689B890C
:1034B0000022190001F0AFFBBB1D1A88FF231B027D
:1034C000134010D0BB1D1B881A02BB6813431E4A51
:1034D0001343BB60FB6818680823F9180A2303220A
:1034E00000F03AFF1CE0BB1D1B88002B10D0BB1D59
:1034F0001B881A02BB68134340221343BB60FB685E
:1035000018680823F9180A23022200F025FF07E0B3
:10351000FB6818680823F9180A23012200F01CFF31
:10352000FB681868BA6939680A2300F015FFFB6860
:103530005868FB689B890122190001F06CFBC046AA
:10354000BD4604B080BDC0464080000090B587B045
:1035500002AF78607B6898687B68DB89002219007D
:1035600001F059FB012001F0ABF87B6898687B689B
:10357000DB890122190001F04EFB0C23FB1878684F
:103580000422009200220021FFF71EFFFB689C4AE4
:10359000934201D0C046FDE70C243B197868022213
:1035A000009200223621FFF70FFFFB68954A134077
:1035B000FB60FB6801221343FB603B197868022221
:1035C000009200223621FFF761FF0023FB603B19C8
:1035D00078680222009204223621FFF757FF002369
:1035E000FB603B1978680222009200222C21FFF731
:1035F0004DFF3B1978680122009206222C21FFF72B
:1036000045FF3B1978680122009202222C21FFF726
:103610003DFF0223FB603B197868012200920222E1
:103620002C21FFF733FF0023FB603B197868012250
:10363000009203223621FFF729FF012001F040F814
:10364000F023FB603B1978680122009203223621A7
:10365000FFF71CFF3B1978680222009200223621F6
:10366000FFF7B2FEFB68674A1340FB60FB6801226C
:103670001343FB603B197868022200920022362136
:10368000FFF704FF0423FB603B19786801220092D6
:1036900000222421FFF7FAFE0423FB603B1978681F
:1036A0000222009204222D21FFF7F0FE0323FB608B
:1036B0003B1978680122009206222D21FFF7E6FED1
:1036C0000023FB603B1978680122009206222D211D
:1036D000FFF7DCFE3B197868042200920A222D21B4
:1036E000FFF772FEFB68FF22134009D00223FB6044
:1036F0003B1978680122009212222D21FFF7C6FEA5
:103700001E23FB600C243B197868022200920422DD
:103710002D21FFF7BBFE0323FB603B1978680122D4
:10372000009206222D21FFF7B1FE0023FB603B191A
:1037300078680122009206222D21FFF7A7FE3B198F
:103740007868042200920A222D21FFF73DFEFB68D3
:103750001B041B0CFB60FB681F22134001D11023CC
:10376000FB60FB68DBB21F221340DBB26022134315
:10377000DAB20B217B181A707B187868012200924C
:103780000E222B21FFF782FE1F4BFB600C243B19FE
:1037900078680222009200223621FFF777FE80230C
:1037A0001B02FB603B1978680222009206222D2141
:1037B000FFF76CFE012000F083FF3B1978680222BE
:1037C000009200223621FFF7FFFDFA68FE231B025C
:1037D0001340FB603B1978680222009200223621D8
:1037E000FFF754FE0023FB603B197868012200922A
:1037F0000A222C21FFF74AFEC046BD4605B090BD07
:103800003001CADEFCFF000001030000F0B58DB0FE
:1038100002AF7860396000233B621A243B19E54A05
:103820001A801C23FB1878680422009200220421CD
:10383000FFF7CAFD3B68DB79002B0BD1FB698022C7
:10384000D2031343FB613B191B88DB089AB23B1977
:103850001A8003E0FB69D84A1340FB61FB69D74A31
:103860001340FB613B681B7A1A04C0239B021A4079
:10387000FB691343FB611C23FB1878680422009248
:1038800000220421FFF702FE1A23FB18CC497868B6
:10389000022200920A002E21FFF7F8FD6D233B6201
:1038A00020243B19C7497868012200920A002E2182
:1038B000FFF7ECFDC44B5B78012B0BD0C34B3B6295
:1038C0003B19C3497868022200920A002E21FFF7B3
:1038D000DDFD0BE0BF4B3B622023FB18BC49786841
:1038E000022200920A002E21FFF7D0FDBA4B3B6264
:1038F00020243B1978680422009207222B21FFF72D
:10390000C5FD26233B623B197868012200920B22F9
:103910002B21FFF7BBFDD8233B623B1978680122BE
:1039200000920B222821FFF7B1FDAC4B3B623B1903
:103930007868042200920C222821FFF7A7FD1623A5
:103940003B623B1978680222009202222721FFF78E
:103950009DFD8D233B623B19786802220092042270
:103960002721FFF793FD64233B623B19786802220D
:10397000009206222721FFF789FD994B3B623B19F4
:1039800078680422009208222721FFF77FFD3B6818
:103990005B89002B02D13B68924A5A813B685B8964
:1039A0003B6220243B1978680222009220222721C2
:1039B000FFF76CFD8C4B3B623B1978680422009248
:1039C0000C222321FFF762FD884B3B623B1978688C
:1039D0000222009204222321FFF758FD27257B199C
:1039E00000221A702626BB1900221A703B689B79A8
:1039F000002B0FD040233B623B19786801220092D4
:103A000000222121FFF742FD7B1903221A70BB1906
:103A100001221A7025217B183A6812781A707B18D7
:103A20001B780F221A407B181B781B01FF210B40CB
:103A30001A433B685B789904C0231B030B401A436D
:103A40002723FB181B781905C0239B030B401A433F
:103A50002623FB181B78590480239B020B401A4332
:103A60003B681B799905F823DB040B401A433B683C
:103A70005B79DB0613437B611423FB18786804220F
:103A8000009200221F21FFF701FD3B689A783B68F6
:103A90005B781343DBB21A043B68DB795B031A43A0
:103AA000534B1A60524B786804220092002208217E
:103AB000FFF7ECFC42233B6220243B19786801228B
:103AC000009200220D21FFF7E1FC4A4B3B623B19BB
:103AD00049497868022200920A002E21FFF7D6FC9D
:103AE000444B3B623B1978680222009200222E214F
:103AF000FFF7CCFC7B681B7C01221340DBB2002B60
:103B000038D00C257B1978680422009200221A21F3
:103B1000FFF75AFCFB681B0D1B05FB60FB68962238
:103B200052001343FB607B19786804220092002244
:103B30001A21FFF7ABFC314BBB600823FB187868F8
:103B40000222009200220C21FFF7A0FC3B197868AA
:103B50000122009203220421FFF736FC3B6A102267
:103B600013433B623B19786801220092032204212F
:103B7000FFF78CFC20233B622023FB18786802228D
:103B8000009224222721FFF781FC1023FB1878687C
:103B90000422009200220F21FFF716FC3B6902224B
:103BA000134001D0012300E000231800BD460BB0F4
:103BB000F0BDC046F4280000FFFFBFFFFFFFFCFF81
:103BC0000428000006080000500600200706000038
:103BD000061800000716000008054008A05C040055
:103BE0005E013B354110000007A902259B880000BB
:103BF00080040020344000000418000088130000F6
:103C0000F0B58DB002AF7861002200233A627B628A
:103C1000082310269B19DB197869052200920022DF
:103C20001721FFF7D1FB0F239B19DB1904221A7010
:103C30002DE03B6A1B0E7A6A15021D433B6A1C028B
:103C40003C627D620F2010214318DB191B785BB2A8
:103C500008225218D219D35CBB600023FB603B6A78
:103C6000B968FA680E001E433E607B6A1A437A60A8
:103C70003A687B683A627B6210214318DB191B7833
:103C80005BB2DBB2013BDAB24318DB191A700F23C7
:103C900010229B18DB191B787F2BCAD93A6A7B6AE2
:103CA00010001900BD460BB0F0BDF0B58DB002AFED
:103CB0007861002200233A627B62082310269B1958
:103CC000DB1978690522009200221521FFF77CFBA1
:103CD0000F239B19DB1904221A702DE03B6A1B0E7F
:103CE0007A6A15021D433B6A1C023C627D620F200A
:103CF00010214318DB191B785BB208225218D21925
:103D0000D35CBB600023FB603B6AB968FA680E00B5
:103D10001E433E607B6A1A437A603A687B683A6267
:103D20007B6210214318DB191B785BB2DBB2013BCD
:103D3000DAB24318DB191A700F2310229B18DB1913
:103D40001B787F2BCAD93A6A7B6A10001900BD46DE
:103D50000BB0F0BD80B584B000AF786039603B68CF
:103D600000221A600F23FB1800221A701AE03B6829
:103D70001B680F203A18127852B279688A181278A4
:103D800011003A18127852B2D20091400A009A18E3
:103D90003B681A603B181B785BB2DBB20133DAB2C6
:103DA0003B181A700F23FB181B785BB2032BDEDD68
:103DB000C046C046BD4604B080BD0000F0B59BB013
:103DC00002AF78600A00FB1C1A702426BB197868C1
:103DD0000122009203220421FFF7F6FA7B6A1022E7
:103DE00093437B62BB19786801220092032204216D
:103DF000FFF74CFBBB1978680122009203220F21C8
:103E0000FFF7E2FA7B6A5A007B6A53408022134034
:103E100009D001237B62BB1978680122009203223A
:103E20000D21FFF733FB80235B007B622423FB180B
:103E300078680222009200220D21FFF727FB754BC4
:103E400078680422009200220F21FFF7BDFA714B1F
:103E50001B68714A1340F2D06E4B1A688023DB0155
:103E6000134000D12BE28023DB017B622423FB186B
:103E700078680422009200220F21FFF707FB674BAE
:103E800019220021180005F05DFA2023FB1878683C
:103E90000422009200221021FFF796FA3B6A9B054C
:103EA0009B0D3B623B6A192B08D83B6A5B4A7868DA
:103EB0000093130000221121FFF786FA574B0022CE
:103EC0009A705749554B0A22180005F02DFA031E27
:103ED00000D014E2514B9B7AFA1C12789A4200D01F
:103EE0000DE27B681800FFF7E0FE02000B004D4971
:103EF0000A604B602426BB197868042200920022D5
:103F00001A21FFF761FA7B6A1B0D1B057B627B6A36
:103F1000FA22520013437B62BB1978680422009294
:103F200000221A21FFF7B2FA00237B62BB197868DE
:103F30000122009203220421FFF746FA3A4BBB61AB
:103F40001823FB1878680222009200220C21FFF748
:103F50009DFA7B6A102213437B62BB1978680122A9
:103F6000009203220421FFF791FA304B1A78304B6C
:103F70009A702F4BFA1C12785A732D4B78680E22C8
:103F8000009200220921FFF781FA2A4B1B682A4A76
:103F900013437B62BB197868042200920022082137
:103FA000FFF774FA1F4B1A685B6824480021121847
:103FB0004B411906140A0C431D0A2300FB611C2304
:103FC000FB1878680422009201220A21FFF75EFAAA
:103FD00086237B62BB1978680122009200220D21A2
:103FE000FFF754FABB1978680222009203220F21CE
:103FF000FFF7EAF97A6A8123DB00134020D04023DF
:104000007B62BB1978680122009200220D21FFF724
:104010003DFA55E18404002000D0272498040020B4
:104020005C060020B804002088130000D0040020A3
:104030006C06002080040020108000000000B80BF7
:104040001423FB1878680422009200220F21FFF746
:10405000BBF9AE4B00221A60AC4B78680422009288
:1040600000220F21FFF7B0F9A84B1B68A84A1340A4
:10407000F2D0A84B1B780133DAB2A64B1A70A34BCF
:104080001A688023DB01134000D1F8E08123DB01B3
:104090007B622423FB1878680422009200220F21FF
:1040A000FFF7F4F92023FB1878680422009200221D
:1040B0001021FFF789F93B6A7F2213403B623B6A7C
:1040C000192B08D83B6A944A7868009313000022A1
:1040D0001121FFF779F9904B00229A708F498E4B8E
:1040E0000A22180005F020F9031E00D007E17B68C2
:1040F0001800FFF785FD02000B0089490A604B603C
:104100007B681800FFF7D1FD02000B0085490A60AB
:104110004B601023FA18844B11001800FFF71AFEA9
:104120000C23FA18814B11001800FFF713FE082327
:10413000FA187F4B11001800FFF70CFE7D4B1A6830
:104140005B681300FB65764B1A685B681300BB6500
:10415000744B1A685B6813007B65FA683B69D31A75
:104160001800FEF721F802000B00BA64FB647A6DB8
:10417000BB6DD31A1800FEF717F802000B003A6463
:104180007B64BA68FB68D31A1800FEF70DF80200CA
:104190000B00BA63FB63BA6DFB6DD31A1800FEF710
:1041A00003F802000B003A637B633A6C7B6CB86CDB
:1041B000F96CFDF72BF902000B0014001D003A6B9F
:1041C0007B6BB86BF96BFDF721F902000B00200047
:1041D0002900FDF7E3FB02000B0014001D003A6C00
:1041E0007B6CB86CF96CFCF793FA02000B001000C2
:1041F0001900BA6BFB6BFCF78BFA02000B00100086
:1042000019003A6B7B6BFCF783FA02000B0020006D
:104210002900FCF7E1FD02000B0010001900FCF77B
:104220005BF902000B00BA62FB62B86AF96AFCF73C
:104230008DF9414A414BFDF7E9F802000B00404976
:104240000A604B603E4B18685968982252053D4BF6
:10425000FDF7DCF802000B003B490A604B603A4B6B
:1042600018685968394A3A4BFDF798FB02000B0071
:1042700035490A604B60344B1A685B6841E0354B46
:104280007B6224243B1978680422009200220F21CB
:10429000FFF7FCF8E0237B623B197868012200926B
:1042A00003223621FFF7F2F8F0237B623B1978688E
:1042B0000122009203223621FFF7E8F81FE0C046F2
:1042C000244B7B6224243B1978680422009200224C
:1042D0000F21FFF7DBF8E0237B623B1978680122AE
:1042E000009203223621FFF7D1F8F0237B623B19BD
:1042F00078680122009203223621FFF7C7F80022D6
:10430000002310001900BD4619B0F0BD8404002040
:1043100000D02724D0040020980400207C06002030
:10432000C0040020C8040020A2040020A60400202D
:10433000AA040020B8040020FA48CE3B1835B13D4D
:104340008804002019DDB14190040020DC22A4196A
:10435000FA2A614000902724F0B58FB000AF786250
:104360003962FA61BB617B6A1B681A687B6A1B68E9
:1043700040210A431A60354B1B68BB620023FB6275
:1043800000237B632CE0314B1B683B6100237B6186
:10439000BA6AFB6A38697969801A994102000B0090
:1043A000B969B9600021F960B868F9680E00B342D4
:1043B0003BD80E00B34202D101008A4235D87B6A55
:1043C0001B689B6802221340DDD03A6A7B6BD218CF
:1043D0007B6A1B680C3312781A707B6B01337B632A
:1043E0007A6BFB699A42EAD315E0184B1B683B6075
:1043F00000237B60BA6AFB6A38687968801A994141
:1044000002000B00B9690C0000210D00AB420ED870
:1044100001D1A2420BD87B6A1B689B6880221340A3
:10442000E3D17B6B01337B6302E0C04600E0C04612
:104430007B6A1B681A687B6A1B6840218A431A6082
:104440007B6B1800BD460FB0F0BDC046D404002001
:10445000F0B593B000AF78633963FA62BB627B6BEF
:104460001B6819687B6B1A6840230B431360504B21
:104470001B68BB630023FB6300237B6402E07B6B50
:104480001B68DB687B6B1B689A6801231340F6D1BD
:1044900056E0474B1B683B6200237B62BA6BFB6BA9
:1044A000386A796A801A994102000B00B96AB961C9
:1044B0000021F961B869F9690E00B34200D964E0DE
:1044C0000E00B34202D101008A425ED87B6B1B68AA
:1044D0009A6802231340DCD07B6B1B680C331A00F4
:1044E000002313701BE0324B1B683B6100237B6190
:1044F000BA6BFB6B38697969801A994102000B002D
:10450000B96AB9600021F960B868F9680E00B34271
:104510003DD80E00B34202D101008A4237D87B6BEE
:104520001B689A6801231340DDD07B6B1B68D96838
:104530003A6B7B6CD218CBB213707B6C01337B640B
:104540007A6CFB6A9A42C1D315E0194B1B683B6039
:1045500000237B60BA6BFB6B38687968801A9941DD
:1045600002000B00B96A0C0000210D00AB4210D80C
:1045700001D1A2420DD87B6B1B689B68802213403F
:10458000E3D17B6C01337B6404E0C04602E0C046AB
:1045900000E0C0467B6B1B681A687B6B1B68402180
:1045A0008A431A607B6C1800BD4613B0F0BDC0464C
:1045B000D404002080B582B000AFFB1D00221A7029
:1045C000032000F00FF8031E03D0FB1D01221A7018
:1045D00001E0FEF72DFCFB1D1B781800BD4602B064
:1045E00080BD000090B585B000AF78600F23FB1848
:1045F00000221A701D4B1B78002B2CD003F07CFF7F
:1046000004001A4B1B781900FA239800FBF782FD6F
:10461000030019002000FBF77DFD0300180000F0E7
:1046200044F9031E12D17B68032B0AD87968012351
:104630005B420022180000F013F90D4B7A681A60F3
:104640000DE00F23FB1801221A7008E00F23FB185E
:1046500001221A7003E00F23FB1801221A700F23A6
:10466000FB181B781800BD4605B090BD9C060020C5
:104670009806002080B500AF054B1B781A00054B4B
:104680001B68D218034B1A60C046BD4680BDC046A9
:104690009C060020D404002080B500AF024B1B68AC
:1046A0001800BD4680BDC046D404002080B500AFD0
:1046B000024B1B681800BD4680BDC046980600200E
:1046C00080B584B000AF7860FFF7E6FF0300BB6001
:1046D0007B68FB60FB68013305D00A4B1B781A002E
:1046E000FB689B18FB60C046FFF7D6FF0200BB6863
:1046F000D31AFA689A42F7D8C046C046BD4604B0FD
:1047000080BDC0469C06002080B582B000AF02008C
:10471000FB1D1A70FB1D1B787F2B09D8FB1D1B7816
:104720001A001F231A40044B012191400A001A600D
:10473000C046BD4602B080BD00E100E090B583B048
:1047400000AF02003960FB1D1A70FB1D1B787F2B28
:1047500028D82F4AFB1D1B785BB29B08C0339B00F7
:104760009B58FA1D1278110003220A40D200FF2143
:1047700091400A00D2431A4011003B689B01FF227E
:104780001A40FB1D1B78180003230340DB009A40EE
:104790001F48FB1D1B785BB29B080A43C0339B007C
:1047A0001A5031E01B4AFB1D1B7819000F230B40E8
:1047B000083B9B0806339B00D31804331B68FA1D83
:1047C0001278110003220A40D200FF2191400A0012
:1047D000D2431A4011003B689B01FF221A40FB1D87
:1047E0001B78180003230340DB009A400948FB1D97
:1047F0001B781C000F232340083B9B080A43063309
:104800009B00C31804331A60C046BD4603B090BD78
:1048100000E100E000ED00E080B582B000AF78601C
:104820007B685A1E80235B049A4201D3012310E067
:104830000A4B7A68013A5A6001235B42032118004F
:10484000FFF77CFF054B00229A60044B07221A6099
:1048500000231800BD4602B080BDC04610E000E055
:1048600080B584B000AFB9607A600F217B18021C5C
:104870001A70BA687B181B785BB211001800FFF73A
:104880005DFFC046BD4604B080BD80B582B000AFBC
:104890000200FB1D1A70FB1D1B785BB21800FFF7AE
:1048A00033FFC046BD4602B080BD80B582B000AFC8
:1048B00078607B681800FFF7AFFF03001800BD4663
:1048C00002B080BD80B586B000AF7860396000234B
:1048D0007B6194E13B681B6801217A6991400A0081
:1048E0001340FB60FB68002B00D185E13B685B68EF
:1048F00003221340012B05D03B685B680322134061
:10490000022B30D17B689B683B617B695B00032293
:104910009A401300DA433B6913403B613B68DA6815
:104920007B695B009A4013003A6913433B617B68E3
:104930003A699A607B685B683B6101227B699A40B7
:104940001300DA433B6913403B613B685B681B091A
:1049500001221A407B699A4013003A6913433B6174
:104960007B683A695A603B685B6803221340032BFB
:1049700017D07B68DB683B617B695B0003229A4050
:104980001300DA433B6913403B613B689A687B69DB
:104990005B009A4013003A6913433B617B683A69B4
:1049A000DA603B685B6803221340022B23D17B69EA
:1049B000DA087B6808329200D3583B617B69072292
:1049C00013409B000F229A401300DA433B691340C7
:1049D0003B613B681A697B6907210B409B009A4049
:1049E00013003A6913433B617B69DA087B6808323C
:1049F00092003969D1507B681B683B617B695B0021
:104A000003229A401300DA433B6913403B613B6841
:104A10005B6803221A407B695B009A4013003A6985
:104A200013433B617B683A691A603B685A68C0234C
:104A30009B02134000D1DFE03B685A688023DB0211
:104A4000134031D08023DB05DB683B617A6890231B
:104A5000DB059A4211D101227B699A401300DB43A6
:104A60001A003B6913403B6101227B699A401300A5
:104A70001A003B6913433B6112E001227B699A40B3
:104A800013001B04DB431A003B6913403B61012206
:104A90007B699A4013001B041A003B6913433B6176
:104AA0008023DB053A69DA603B685A6880235B0340
:104AB000134031D08023DB051B693B617A6890236A
:104AC000DB059A4211D101227B699A401300DB4336
:104AD0001A003B6913403B6101227B699A40130035
:104AE0001A003B6913433B6112E001227B699A4043
:104AF00013001B04DB431A003B6913403B61012296
:104B00007B699A4013001B041A003B6913433B6105
:104B10008023DB053A691A613B685A688023DB030E
:104B2000134031D08023DB055B693B617A689023B9
:104B3000DB059A4211D101227B699A401300DB43C5
:104B40001A003B6913403B6101227B699A401300C4
:104B50001A003B6913433B6112E001227B699A40D2
:104B600013001B04DB431A003B6913403B61012225
:104B70007B699A4013001B041A003B6913433B6195
:104B80008023DB053A695A613B685A6880235B02DF
:104B9000134031D08023DB059B693B617A68902309
:104BA000DB059A4211D101227B699A401300DB4355
:104BB0001A003B6913403B6101227B699A40130054
:104BC0001A003B6913433B6112E001227B699A4062
:104BD00013001B04DB431A003B6913403B610122B5
:104BE0007B699A4013001B041A003B6913433B6125
:104BF0008023DB053A699A617B6901337B613B68FD
:104C00001A687B69DA40131E00D063E6C046C046CE
:104C1000BD4606B080BD80B582B000AF78600800A8
:104C20001100BB1C021C1A807B1C0A1C1A707B1C06
:104C30001B78002B04D0BB1C1A887B689A6103E0A8
:104C4000BB1C1A887B689A62C046BD4602B080BD14
:104C500080B582B000AF7860044B1B68034B7A6864
:104C60001A60C046BD4602B080BDC046C0000020EC
:104C700080B582B000AF7860074B5B68074A13408D
:104C800019007B681B021B041A0C034B0A435A6071
:104C9000C046BD4602B080BDC0000020FF00FFFF3F
:104CA00080B582B000AF7860084B5B68084A13405B
:104CB00019007B681A04FF231B041A40034B0A43A4
:104CC0005A60C046BD4602B080BDC046C00000204C
:104CD000FFFF00FF80B582B000AF7860064B5B68D5
:104CE0001B02190A7B681A06034B0A435A60C04626
:104CF000BD4602B080BDC046C000002080B582B075
:104D000000AF7860074B9B68FF22934319007B68D4
:104D1000FF221A40034B0A439A60C046BD4602B0C8
:104D200080BDC046C000002080B582B000AF786072
:104D3000074B9B68074A134019007B681B021B0442
:104D40001A0C034B0A439A60C046BD4602B080BDB0
:104D5000C0000020FF00FFFF80B582B000AF786088
:104D6000084B9B68084A134019007B681A04FF230C
:104D70001B041A40034B0A439A60C046BD4602B06A
:104D800080BDC046C0000020FFFF00FF80B582B09C
:104D900000AF7860064B9B681B02190A7B681A06F5
:104DA000034B0A439A60C046BD4602B080BDC04670
:104DB000C000002080B582B000AF7860074BDB6890
:104DC000FF22934319007B68FF221A40034B0A43DA
:104DD000DA60C046BD4602B080BDC046C0000020BB
:104DE00080B582B000AF7860074BDB68074A13409C
:104DF00019007B681B021B041A0C034B0A43DA6080
:104E0000C046BD4602B080BDC0000020FF00FFFFCD
:104E100080B582B000AF7860084BDB68084A134069
:104E200019007B681A04FF231B041A40034B0A4332
:104E3000DA60C046BD4602B080BDC046C00000205A
:104E4000FFFF00FF80B582B000AF7860084BDB68E1
:104E5000084A134019007B681A06FC239B051A4078
:104E6000034B0A43DA60C046BD4602B080BDC0466F
:104E7000C0000020FFFFFFC080B582B000AF7860A7
:104E8000074B1B69FF22934319007B68FF221A40DE
:104E9000034B0A431A61C046BD4602B080BDC046FE
:104EA000C000002080B500AF044B5A69034B0421B9
:104EB0000A435A61C046BD4680BDC046C0000020BE
:104EC00080B500AF044B5A69034B802109040A43A3
:104ED0005A61C046BD4680BDC000002080B500AF0D
:104EE000044B5A69034B802189050A435A61C04625
:104EF000BD4680BDC000002080B500AF044B5A699C
:104F0000034B8021C9050A435A61C046BD4680BD96
:104F1000C000002080B582B000AF78607B68DB689D
:104F2000032293431A007B68DA60C046BD4602B094
:104F300080BD80B582B000AF78607B68DB680322FB
:104F400093431A007B68DA60C046BD4602B080BD5C
:104F500080B582B000AF78607B689B6A034A1A40D4
:104F60007B689A62C046BD4602B080BDFFFFFFBFAE
:104F700080B582B000AF786001231800BD4602B052
:104F800080BD80B582B000AF78607B68DB68002BA5
:104F900001DA012300E000231800BD4602B080BD05
:104FA00090B58DB000AF7860144B7B61144B1B68DB
:104FB000144A93422AD1144B1B681B0A0F22134038
:104FC000FB62114B1B681B0B0F221340BB620E4B85
:104FD0001B681B0C0F2213407B620B4B1B681B0DC5
:104FE000072213403B62084B1B681B0E072213402D
:104FF000FB611B23FB1801221A7011E074050020CD
:10500000F81E0010CCECBCFCE81E00100823FB626C
:105010000723BB6208237B621B23FB1800221A7044
:10502000FC4B00221A717B68002B03D07B681800B0
:10503000FDF708FFC023DB051800FFF76BFFC02357
:10504000DB051800FFF775FFF34B1800FFF780FF33
:10505000F24A9E239B00D3580F2293431A007B6A87
:105060000F210B40ED491A439E239B00CA50EB4A87
:105070009D239B00D358F02293431A00BB6A1B0167
:10508000FF210B40E5491A439D239B00CA50E34A88
:105090009D239B00D3580F2293431A00FB6A0F21D4
:1050A0000B40DE491A439D239B00CA501B23FB186B
:1050B0001B78002B1ED0D94A92239B00D35807227D
:1050C00093431A003B6A07210B40D4491A439223A9
:1050D0009B00CA50D14A92239B00D3583822934355
:1050E0001A00FB69DB0038210B40CC491A4392239C
:1050F0009B00CA50C94AA4235B00D358FF229343A4
:10510000C64955221A43A4235B00CA50C34AAA23A6
:105110005B00D358FF229343C04966221A43AA2357
:105120005B00CA50BD4AB4235B00D358FF229343AF
:10513000BA4955221A43B4235B00CA50B74AC42364
:105140005B00D358FF229343B4491D221A43C42362
:105150005B00CA50B14AC2235B00D358FF2293437D
:10516000AE4959221A43C2235B00CA50AB4AC62338
:105170005B00D358FF229343A84932221A43C62327
:105180005B00CA50A54AB6235B00D358A34901224D
:105190001A43B6235B00CA504020FFF769FD3F2049
:1051A000FFF77EFD0920FFF795FD7420FFF7D4FD82
:1051B0003820FFF7EBFD7620FFF7A0FD3A20FFF740
:1051C000B3FD1020FFF724FE1020FFF73BFE052063
:1051D000FFF752FE1420FFF7EDFD0520FFF700FE5C
:1051E000FFF760FEFFF76CFEFFF778FE13203B1819
:1051F00000221A703B181B783A18591C11701A00BB
:105200007B699B1801221A703B181B783A18591CAD
:1052100011701A007B699B185E221A707F4A9E23C8
:105220009B00D1583B181B7804003A18581C10708A
:105230001A007B699B18CAB21A7020003B181B78B1
:105240003A18591C11701A007B699B1801221A70B8
:105250003B181B783A18591C11701A007B699B186F
:105260005D221A706D4A9D239B00D1583B181B7814
:1052700004003A18581C10701A007B699B18CAB2B7
:105280001A7020003B181B783A18591C11701A002C
:105290007B699B1801221A703B181B783A18591C1D
:1052A00011701A007B699B1852221A705B4A922374
:1052B0009B00D1583B181B7804003A18581C1070FA
:1052C0001A007B699B18CAB21A7020003B181B7821
:1052D0003A18591C11701A007B699B1801221A7028
:1052E0003B181B783A18591C11701A007B699B18DF
:1052F00012221A70494AA4235B00D1583B181B782C
:1053000004003A18581C10701A007B699B18CAB226
:105310001A7020003B181B783A18591C11701A009B
:105320007B699B1801221A703B181B783A18591C8C
:1053300011701A007B699B1815221A70374AAA232C
:105340005B00D1583B181B7804003A18581C1070A9
:105350001A007B699B18CAB21A7020003B181B7890
:105360003A18591C11701A007B699B1801221A7097
:105370003B181B783A18591C11701A007B699B184E
:105380001A221A70254AB4235B00D1583B181B78A7
:1053900004003A18581C10701A007B699B18CAB296
:1053A0001A7020003B181B783A18591C11701A000B
:1053B0007B699B1801221A703B181B783A18591CFC
:1053C00011701A007B699B1822221A70134AC42399
:1053D0005B00D1583B181B7804003A18581C107019
:1053E0001A007B699B18CAB21A7020003B181B7800
:1053F0003A18591C11701A007B699B1801221A7007
:105400003B181B783A18591C11701A007B699B18BD
:1054100006E0C046C00000200018006000140060D4
:1054200021221A704C4AC2235B00D1583B181B78CA
:1054300004003A18581C10701A007B699B18CAB2F5
:105440001A7020003B181B783A18591C11701A006A
:105450007B699B1801221A703B181B783A18591C5B
:1054600011701A007B699B1823221A703A4AC623CE
:105470005B00D1583B181B7804003A18581C107078
:105480001A007B699B18CAB21A7020003B181B785F
:105490003A18591C11701A007B699B1801221A7066
:1054A0003B181B783A18591C11701A007B699B181D
:1054B0001B221A70284AB6235B00D1583B181B7870
:1054C00004003A18581C10701A007B699B18CAB265
:1054D0001A703B191B783A19591C11701A007B6914
:1054E0009B1800221A701D4A1D4B1A601B4A1C4B48
:1054F0005A601C4A1A4B9A60194B0022DA60184B0A
:105500001B681800FFF7A4FB134B01221A61FFF779
:10551000F3FC154B96221A60134B00221A71C0231C
:10552000DB055B68FB60C023DB05FA685A600F4B44
:105530005A6C0E4B01210A435A640C4B1A6C0B4BEC
:1055400001210A431A64C023DB055B68FB60C04687
:10555000BD460DB090BDC04600140060740500202B
:105560006405002070050020D804002000180060A9
:1055700080B586B000AF244AA9239B00D358FB60B6
:10558000214AAA239B00D358BB60BB681B021B04A3
:105590001A0CFB68FF210B4013433B611A4AAB23F3
:1055A0009B00D3587B603B69002B02D07B680B2BA0
:1055B00002D97F237B6120E07A6813005B009B188F
:1055C0005B00773B7B6105E07B6906337B613B6970
:1055D0005B083B613B691E2BF6D83A6913005B0000
:1055E0009B189B009B185B019B18084A94466344D8
:1055F0009B0A1A007B699B187B617B695BB2180070
:10560000BD4606B080BDC04600140060A046000044
:1056100090B585B000AF786039607B68DB68402268
:10562000134053D108243B19180008231A00002105
:1056300003F088FE7B68DB68002B20DA7B68DA6881
:1056400080239B0113400CD07B685A693B191A6078
:105650007B681A693B195A603B19180000F043F83F
:105660003CE07B685A6908217B181A607B681A69DC
:105670007B185A607B181800FDF7F2FA2EE07B6861
:10568000DA688023DB0413400CD07B685A69082158
:105690007B181A607B1800225A607B181800FDF7EF
:1056A0009DFA1BE07B68DA688023DB05134015D088
:1056B0007B685A6908217B181A607B681A697B1815
:1056C0005A607B181800FDF767FA07E07B68DA6814
:1056D00080239B04134001D0FDF7A2FA0123180098
:1056E000BD4605B090BD80B582B000AF7860C046C1
:1056F000BD4602B080BD000090B589B000AF7860B3
:105700007A6880239B04134000D105E1C023DB05A8
:10571000DB69402213401900814B9B687A680A4379
:10572000DA607F4B9B685A6B7D4B9B6818009047F3
:105730000300012B04D17A4B9B68DB6AFB6103E019
:10574000774B9B681B6BFB61FB69002B16D1C02359
:10575000DB051800FFF7DEFBC023DB051800FFF7B1
:10576000E8FB704B1800FFF7F3FB6F4B1B79DBB2C4
:105770006D4A7F210B40DBB2137199E0FB691B7806
:105780006949802252421343DBB20B71FB69183323
:10579000BB61FB691B781A0013009B009B181B015F
:1057A000624A944663441B78DBB25BB27F221340AB
:1057B0005AB2FB693C215B5C5BB2134359B2FB6993
:1057C0001B781A0013009B009B181B01574A944634
:1057D0006344CAB21A70FB691B781A0013009B005D
:1057E0009B181B01514A94466344BA695A60FB698D
:1057F0001B781A0013009B009B181B014B4A944610
:105800006344BA699A60FB691B781A0013009B0015
:105810009B181B01454A94466344FA6991782B22F0
:105820009954FB695B781A000423134040D0C023CD
:10583000DB051800FFF76EFBC023DB051800FFF740
:1058400078FBFB695B781A00202313401ED001F01F
:105850004BFA02000B001400FB695B68180001F0B2
:105860001FFA0300E3187B61FB693C229B5C803BD1
:105870005A425341DBB21900FB695B7801221340A5
:10588000DAB27B69180001F017F911E0FB6958687A
:10589000FB693C229B5C803B5A425341DBB21900BE
:1058A000FB695B7801221340DBB21A0001F004F9B6
:1058B0007B68002B04DB7A688023DB05134012D061
:1058C000FFF756FE03001A00154B9B685A61082328
:1058D000FB18180001F0DCF802000B001049896881
:1058E00013000B610BE07A688023DB04134006D0C1
:1058F000FFF73EFE03001A00094B9B685A61084BF4
:105900009B683B61064BFA699A603B699B6BF9693E
:105910003A6910009847C046C046BD4609B090BDE0
:10592000D804002000180060C0000020DC00002027
:1059300090B585B000AF02003960FB1D1A700F23CF
:10594000FB1800221A701AE00F203B181B783A68E7
:10595000D118FB1D1A7813009B009B181B01194AD4
:105960009A1804003B181B7808782E21D3185B186E
:10597000021C1A703B191A783B1901321A700F2356
:10598000FB181B78042BDFD9FB1D1A7813009B0032
:105990009B181B010B4A9446634432229B5CD9B28C
:1059A000FB1D1A7813009B009B181B01054A9446A7
:1059B00063441F220A40D1B232229954C046BD46E8
:1059C00005B090BDDC00002090B583B000AF0400AE
:1059D00008001100FB1D221C1A70BB1D021C1A704E
:1059E0007B1D0A1C1A70FB1D1A7813009B009B1864
:1059F0001B01244A944663441B78DBB25BB23F220E
:105A000093435AB2BB1D1B785BB2134359B2FB1DC3
:105A10001A7813009B009B181B011A4A9446634492
:105A2000CAB21A70FB1D1A7813009B009B181B0149
:105A3000144A944663445B78DBB25BB23F229343E3
:105A40005AB2BB1D1B785BB2134359B2FB1D1A78C7
:105A500013009B009B181B010A4A94466344CAB278
:105A60005A70FB1D1A7813009B009B181B01054AF6
:105A7000944663447A1D2D2112785A54C046BD467F
:105A800003B090BDDC00002080B584B000AFB960E9
:105A90007A600F217B18021C1A7008003B181A78D4
:105AA00013009B009B181B01184A94466344BA6874
:105AB0005A623B181A7813009B009B181B01134A6B
:105AC000944663447A68D1B2282299547B68190AB3
:105AD0003B181A7813009B009B181B010B4A944635
